:100000000C9472000C9494000C9494000C94940042
:100010000C9494000C9494000C9494000C94940010
:100020000C9494000C9494000C9494000C94940000
:100030000C9494000C9494000C9494000C949400F0
:100040000C9494000C9494000C9494000C949400E0
:100050000C9494000C9494000C9494000C949400D0
:100060000C9494000C94FB010C9494000C94CC011F
:100070000C9494000C9494000C9494000C949400B0
:100080000C9494000C9494000C9494000C949400A0
:100090000C9494000C9494000C9494000C94940090
:1000A0000C9494000C9494000C9494000C94940080
:1000B0000C9494000C9494000C9494000C94940070
:1000C0000C9494000C9494000C9494000C94940060
:1000D0000C9494000C9494000C9494000C94940050
:1000E0000C94940011241FBECFEFD1E2DEBFCDBF30
:1000F00000E00CBF12E0A0E0B2E0E8EBFAE000E0C4
:100100000BBF02C007900D92A633B107D9F71BBEF3
:1001100012E0A6E3B2E001C01D92A53CB107E1F7F1
:100120000E9425020C945A050C94000010927B0248
:1001300010927A02109279021092780210927D0247
:1001400010927C0210923702109236020895482FC6
:1001500020917C0230917D022F5F3F4FC90160E406
:1001600070E00E947A029C018091360290913702E1
:100170002817390759F030937D0220937C022258CA
:100180003D4FF901408381E090E0089580E090E0E8
:100190000895809136029091370220917C0230912F
:1001A0007D022817390779F0019660E470E00E941B
:1001B0007A02909337028093360282589D4FFC0159
:1001C000808190E0089580E090E00895482F20918C
:1001D0007A0230917B022F5F3F4FC90160E470E0EB
:1001E0000E947A029C0180917802909179022817EE
:1001F000390759F030937B0220937A02285C3D4FF7
:10020000F901408381E090E0089580E090E0089556
:10021000809178029091790220917A0230917B024C
:100220002817390779F0019660E470E00E947A029D
:100230009093790280937802885C9D4FFC018081C5
:1002400090E0089580E090E00895CF93DF93FC0163
:1002500062E070E00E947A02EB0122E030E008C028
:10026000CF01B9010E947A02009741F02F5F3F4F02
:10027000C217D307ACF781E090E002C080E090E0C5
:10028000DF91CF910895CF92DF92EF92FF920F937B
:100290001F93CF93DF937C0100E010E0C2E0D0E039
:1002A00023E0C22E22E0D22E16C0CE010E942501EC
:1002B000009781F00F5F1F4F00D00F92EDB7FEB790
:1002C000D282C182D483C3830E94A1020F900F9077
:1002D0000F900F902196EC16FD063CF700D00F9280
:1002E0008EE192E0EDB7FEB792838183148303839E
:1002F0000E94A1020F900F900F900F90DF91CF916D
:100300001F910F91FF90EF90DF90CF900895CF93C2
:10031000C82F8A3019F48DE00E948701F8948091EB
:10032000BE02882361F4C093C60081E08093BE02C0
:100330000BC0789481E28A95F1F70000F8948C2F35
:100340000E94E6000097A9F3789481E090E0CF91B5
:10035000089588E292E09093C2028093C1020E94C5
:1003600096001092BE021092C50087E08093C400F0
:10037000E0ECF0E0808182608083E1ECF0E080815D
:1003800088608083808180648083808180618083B5
:1003900080818068808308951F920F920FB60F921C
:1003A0000BB60F9211242F933F934F935F936F934C
:1003B0007F938F939F93AF93BF93EF93FF930E948D
:1003C0000801882319F41092BE0202C08093C6006F
:1003D000FF91EF91BF91AF919F918F917F916F911D
:1003E0005F914F913F912F910F900BBE0F900FBED9
:1003F0000F901F9018951F920F920FB60F920BB689
:100400000F9211242F933F934F935F936F937F939A
:100410008F939F93AF93BF93EF93FF938091C60009
:100420000E94A700FF91EF91BF91AF919F918F9193
:100430007F916F915F914F913F912F910F900BBEE4
:100440000F900FBE0F901F901895CF93DF93CDB7ED
:10045000DEB7C058D0400FB6F894DEBF0FBECDBF98
:100460000E94A90178940F920F9280E0E82E82E01A
:10047000F82EEDB7FEB7F282E1820E94A1020F9042
:100480000F9000E010E0DE2C94E6E92EF8940E9434
:10049000C90078948823D1F38D30C1F3E1E0F0E016
:1004A000EC0FFD1FE00FF11F8A3001F510828C81E7
:1004B000282F30E02B30310530F42115310549F477
:1004C00080ED97E004C0FE2D8F9FC00111240E9493
:1004D00043010F920F92EDB7FEB7D182F2820E94D4
:1004E000A1020F900F9000E010E0D0CF80830F5F4B
:1004F0001F4FCCCF97FB092E07260AD077FD04D0DB
:100500000CD006D000201AF4709561957F4F0895A5
:10051000F6F7909581959F4F0895AA1BBB1B51E15B
:1005200007C0AA1FBB1FA617B70710F0A61BB70B63
:10053000881F991F5A95A9F780959095BC01CD0108
:100540000895CF93DF93CDB7DEB7FE013696619164
:1005500071918091C1029091C202AF010E94B302D9
:10056000DF91CF9108952F923F924F925F926F92B9
:100570007F928F929F92AF92BF92CF92DF92EF9233
:10058000FF920F931F93CF93DF93CDB7DEB72D97D5
:100590000FB6F894DEBF0FBECDBF3C017D876C87E0
:1005A0005A01FC0117821682838181FFC8C12E0186
:1005B0000894411C511CF3019381EC85FD8593FD4A
:1005C000859193FF8191FD87EC87882309F4B3C15E
:1005D000853241F493FD859193FF8191FD87EC87EE
:1005E000853229F490E0B3010E94D004E4CFFF24C7
:1005F000EE2410E01032B0F48B3269F08C3228F423
:10060000803251F0833271F40BC08D3239F0803377
:1006100049F411602CC01260146029C0186027C012
:10062000106125C017FD2EC0282F20532A3098F4C2
:1006300016FF08C08F2D880FF82EFF0CFF0CF80E48
:10064000F20E15C08E2D880FE82EEE0CEE0CE80E83
:10065000E20E10620CC08E3221F416FD6CC11064E3
:1006600006C08C3611F4106802C0883659F4EC8547
:10067000FD8593FD859193FF8191FD87EC8788230C
:1006800009F0B8CF982F9554933018F090529330CA
:1006900038F424E030E0A20EB31E3FE339830FC0EC
:1006A000833631F0833781F0833509F05AC022C098
:1006B000F5018081898322E030E0A20EB31E21E0A3
:1006C000C22ED12C420114C092E0292E312C2A0CCA
:1006D0003B1CF5018080918016FF03C06F2D70E0F8
:1006E00002C06FEF7FEFC4010E94C5046C0151018D
:1006F0001F7715C082E0282E312C2A0C3B1CF501F7
:100700008080918016FF03C06F2D70E002C06FEFF4
:100710007FEFC4010E94BA046C011068510113FDFF
:100720001CC006C080E290E0B3010E94D004EA94AD
:100730008E2D90E0C816D906A8F30FC0F40117FD5E
:10074000859117FF81914F0190E0B3010E94D00481
:10075000E110EA940894C108D108C114D10471F7DA
:10076000E7C0843611F0893651F5F50117FF07C04F
:1007700080819181A281B38124E030E008C0808132
:100780009181AA2797FDA095BA2F22E030E0A20E12
:10079000B31E012F0F76B7FF08C0B095A0959095B6
:1007A00081959F4FAF4FBF4F0068BC01CD01A201A3
:1007B0002AE030E00E94FC04D82ED4183FC08537D0
:1007C00021F41F7E2AE030E020C0197F8F36A9F087
:1007D000803720F4883509F0AEC00BC0803721F097
:1007E000883709F0A8C001C0106114FF09C0146067
:1007F00007C014FF08C0166006C028E030E005C03E
:1008000020E130E002C020E132E0F50117FF07C02F
:10081000608171818281938144E050E006C06081F3
:10082000718180E090E042E050E0A40EB51EA2018C
:100830000E94FC04D82ED418012F0F7706FF09C0A0
:100840000E7FDF1430F404FF06C002FD04C00F7EEB
:1008500002C01D2D01C01F2D802F90E004FF0CC091
:10086000FE01ED0DF11D2081203311F4097E09C038
:1008700002FF06C01E5F05C086789070009709F0E1
:100880001F5F802E992403FD12C000FF0DC0FD2CB8
:100890001E1550F4FE0CF11A1E2D06C080E290E0E9
:1008A000B3010E94D0041F5F1E15C0F304C01E15C3
:1008B00010F4E11A01C0EE2484FE0FC080E390E042
:1008C000B3010E94D00482FE1FC081FE03C088E5F0
:1008D00090E010C088E790E00DC0C4018678907069
:1008E000009791F081FC02C080E201C08BE207FD1D
:1008F0008DE290E0B3010E94D00406C080E390E056
:10090000B3010E94D004FA94DF14C0F3DA94F20128
:10091000ED0DF11D808190E0B3010E94D004DD2037
:10092000A9F706C080E290E0B3010E94D004EA94E7
:10093000EE20C1F740CEF3018681978102C08FEF90
:100940009FEF2D960FB6F894DEBF0FBECDBFDF919F
:10095000CF911F910F91FF90EF90DF90CF90BF90BC
:10096000AF909F908F907F906F905F904F903F904F
:100970002F900895FC010590615070400110D8F748
:10098000809590958E0F9F1F0895FC0161507040D7
:1009900001900110D8F7809590958E0F9F1F0895B4
:1009A0000F931F93CF93DF938C01EB018B8181FF1A
:1009B0001BC082FF0DC02E813F818C819D81281735
:1009C000390764F4E881F9810193F983E88306C06B
:1009D000E885F985802F1995009731F48E819F81E4
:1009E00001969F838E8302C00FEF1FEFC801DF9136
:1009F000CF911F910F910895FA01AA27283051F144
:100A0000203181F1E8946F936E7F6E5F7F4F8F4F3F
:100A10009F4FAF4FB1E03ED0B4E03CD0670F781F9E
:100A2000891F9A1FA11D680F791F8A1F911DA11D83
:100A30006A0F711D811D911DA11D20D009F46894BC
:100A40003F912AE0269F11243019305D3193DEF664
:100A5000CF010895462F4770405D4193B3E00FD01A
:100A6000C9F7F6CF462F4F70405D4A3318F0495D05
:100A700031FD4052419302D0A9F7EACFB4E0A695E8
:100A80009795879577956795BA95C9F7009761050A
:100A9000710508959B01AC010A2E06945795479560
:100AA00037952795BA95C9F7620F731F841F951F55
:080AB000A01D0895F894FFCF8A
:100AB80024200025642069732061207072696D65A7
:100AC8002C206E756D626572202121210A00636FEA
:100AD800756E743D25640A000000000200000000E5
:060AE80087010000000080
:00000001FF
