:100000000C9478000C949A000C949A000C949A002A
:100010000C949A000C949A000C949A000C949A00F8
:100020000C949A000C949A000C949A000C949A00E8
:100030000C949A000C949A000C949A000C941D0352
:100040000C949A000C949A000C949A000C949A00C8
:100050000C949A000C949A000C949A000C949A00B8
:100060000C949A000C94B5020C949A000C9486029D
:100070000C949A000C949A000C949A000C949A0098
:100080000C949A000C949A000C949A000C949A0088
:100090000C949A000C949A000C949A000C949A0078
:1000A0000C949A000C949A000C949A000C949A0068
:1000B0000C949A000C949A000C949A000C949A0058
:1000C0000C949A000C949A000C949A000C949A0048
:1000D0000C949A000C949A000C949A000C949A0038
:1000E0000C949A006364696E6F70737578585B0046
:1000F00011241FBECFEFD1E2DEBFCDBF00E00CBFA9
:1001000012E0A0E0B2E0EAEFFFE100E00BBF02C0C6
:1001100007900D92A03EB107D9F71BBE14E0A0EEE8
:10012000B2E001C01D92AD31B107E1F70E946B074B
:100130000C94FB0F0C940000CF93DF93FC0162E062
:1001400070E00E949507EB0122E030E008C0CF018B
:10015000B9010E949507009741F02F5F3F4FC217EA
:10016000D307ACF781E090E002C080E090E0DF913F
:10017000CF910895CF92DF92EF92FF920F931F934A
:10018000CF93DF93009741F0FC012081222321F0DF
:100190000E94EB088C0102C000ED17E0EE24FF2462
:1001A000C2E0D0E080E0C82E82E0D82E17C0CE0199
:1001B0000E949C00009789F00894E11CF11C00D07B
:1001C0000F92EDB7FEB7D282C182D483C3830E945F
:1001D000A7090F900F900F900F9021960C171D07F5
:1001E00034F700D00F928AE192E0EDB7FEB7928328
:1001F0008183F482E3820E94A7090F900F900F90F1
:100200000F90DF91CF911F910F91FF90EF90DF90B2
:10021000CF900895CF92DF92EF92FF920F931F93AA
:10022000CF93DF93009721F00E94EB087C0104C07C
:1002300020EDE22E27E0F22E00E010E0C2E0D0E058
:1002400094E2C92E92E0D92E16C0CE010E949C00E5
:10025000009781F00F5F1F4F00D00F92EDB7FEB7F0
:10026000D282C182D483C3830E94A7090F900F90CA
:100270000F900F902196EC16FD063CF700D00F92E0
:100280008BE392E0EDB7FEB79283818314830383FF
:100290000E94A7090F900F900F900F90DF91CF91C0
:1002A0001F910F91FF90EF90DF90CF900895EF9204
:1002B000FF921F93CF93DF93CDB7DEB728970FB68A
:1002C000F894DEBF0FBECDBF009719F0FC0110817E
:1002D00001C011E637E4E32E32E0F32E0F920F92C5
:1002E000EDB7FEB7F282E1820E94A7090F900F904E
:1002F0004091170450911804CE01019668E070E017
:100300000E944D090097C9F00E9452032981FC0107
:1003100020831182183629F0143731F0143651F445
:1003200006C00E945A03DACF0E946F03D7CF0E9403
:10033000BD03D4CF0E948603D1CF0E94F4030E9454
:10034000210428960FB6F894DEBF0FBECDBFDF9113
:10035000CF911F91FF90EF9008950F931F93CF932C
:10036000DF93CDB7DEB762970FB6F894DEBF0FBE4E
:10037000CDBF0AE412E00F920F92EDB7FEB71283E1
:1003800001830E94A7090F900F904091170450918C
:100390001804CE01019668E070E00E944D090097B4
:1003A00061F0CE0101960E94EB08BC01009729F094
:1003B000CE0109960E946F06DECF0E9417060E94AA
:1003C000590662960FB6F894DEBF0FBECDBFDF911F
:1003D000CF911F910F910895CF93DF9300D00F928B
:1003E0000F92CDB7DEB72DB73EB72A5030400FB6CB
:1003F000F8943EBF0FBE2DBFEDB7FEB73196ADB737
:10040000BEB712969C938E9311978EE492E09383DD
:100410008283CE01049695838483CE0101969783CF
:100420008683CE010296918780870E94EE0989819A
:10043000EDB7FEB73A960FB6F894FEBF0FBEEDBF0C
:100440008B3289F400D00F9285E592E0ADB7BEB74C
:1004500012969C938E9311978C819D812A813B816A
:10046000820F931F41C08D3289F400D00F9285E531
:1004700092E0EDB7FEB7928381838C819D812A81C2
:100480003B81821B930B9483838332C08F32A9F408
:1004900000D00F9285E592E0ADB7BEB712969C935F
:1004A0008E9311978C819D816A817B810E94950733
:1004B000EDB7FEB7748363831BC08A32F9F400D0B2
:1004C0000F9285E592E0ADB7BEB712969C938E93DE
:1004D00011974C815D812A813B81429FC001439FDE
:1004E000900D529F900D112414969C938E93139708
:1004F0000E94A7090F900F900F900F900F900F90F0
:100500000F900F900F90DF91CF9108951F920F924F
:100510000FB60F920BB60F9211242F933F934F9368
:100520005F936F937F938F939F93AF93BF93EF935B
:10053000FF930E94A404882319F41092CC0302C0F4
:100540008093C600FF91EF91BF91AF919F918F91E2
:100550007F916F915F914F913F912F910F900BBEC3
:100560000F900FBE0F901F9018951F920F920FB60D
:100570000F920BB60F9211241F932F933F934F931B
:100580005F936F937F938F939F93AF93BF93EF93FB
:10059000FF93CF93DF93CDB7DEB72A97DEBFCDBFF2
:1005A0001091C6001B3161F48091590290915A025A
:1005B00001968170907090935A028093590224C0E2
:1005C000143069F01D3009F41AE02091590230917D
:1005D0005A022115310519F0812F0E943907812F08
:1005E0000E944304143011F01A3071F48FE395E047
:1005F0009A838983CE01039668E572E00E94170909
:10060000CE0101960E94CA042A96DEBFCDBFDF91BB
:10061000CF91FF91EF91BF91AF919F918F917F917A
:100620006F915F914F913F912F911F910F900BBE52
:100630000F900FBE0F901F9018951F920F920FB63C
:100640000F920BB60F9211242F933F934F935F930A
:100650006F937F938F939F93AF93BF93EF93FF938A
:10066000E091E202F091E302309749F080819181BC
:10067000019791838083009711F40E94FA05FF91FE
:10068000EF91BF91AF919F918F917F916F915F910A
:100690004F913F912F910F900BBE0F900FBE0F9077
:1006A0001F90189584E090E00E94BC0708950E9476
:1006B00052080895FC018091E0029091E1020097B8
:1006C00039F4F093E102E093E0021382128208957C
:1006D00093838283F093E102E093E0020895E09136
:1006E000E002F091E102309731F49093E1028093BF
:1006F000E00208C0F9012281338121153105D1F7CB
:1007000093838283FC01138212820895CF93DF9337
:10071000FC012091E0023091E1022115310531F018
:1007200040815181D901C0E0D0E00FC09093E10237
:100730008093E002138212821DC012968D919C91CB
:100740001397ED01009739F0DC018D919C91119781
:100750008417950794F3209739F433832283F09319
:10076000E102E093E00206C08A819B819383828349
:10077000FB83EA83DF91CF910895CF93DF93FC0150
:100780002091E0023091E1022115310531F04081E4
:100790005181D901C0E0D0E00FC09093E102809375
:1007A000E002138212821DC012968D919C911397C4
:1007B000ED01009739F0DC018D919C91119748175C
:1007C000590794F3209739F433832283F093E1029D
:1007D000E093E00206C08A819B8193838283FB833E
:1007E000EA83DF91CF9108950F931F93CF93DF9307
:1007F0008AE090E00E94B909C091E002D091E10244
:100800000BE512E013C000D00F92EDB7FEB71283D4
:10081000018388819981948383830E94A7090A8038
:10082000DB81C02D0F900F900F900F90209759F7FC
:100830008AE090E00E94B909DF91CF911F910F915A
:10084000089509C0FC01228133813093E102209395
:10085000E0020E9452088091E0029091E10200972C
:1008600089F708951092D0031092CF031092CE030F
:100870001092CD031092D2031092D10310928B03E9
:1008800010928A030895482F2091D1033091D2030A
:100890002F5F3F4FC90160E470E00E9495079C0103
:1008A00080918A0390918B032817390759F0309370
:1008B000D2032093D1032D523C4FF901408381E0B4
:1008C00090E0089580E090E0089580918A039091EF
:1008D0008B032091D1033091D2032817390779F087
:1008E000019660E470E00E94950790938B038093DB
:1008F0008A038D529C4FFC01808190E0089580E036
:1009000090E00895482F2091CF033091D0032F5FBE
:100910003F4FC90160E470E00E9495079C018091FF
:10092000CD039091CE032817390759F03093D003A7
:100930002093CF0324573C4FF901408381E090E09E
:10094000089580E090E008958091CD039091CE03CA
:100950002091CF033091D0032817390779F0019601
:1009600060E470E00E9495079093CE038093CD03DE
:1009700084579C4FFC01808190E0089580E090E0D6
:1009800008951092E7021092E602109289031092E5
:1009900088030895CF93DF93482FE92F8091E602D3
:1009A0009091E702C0918803D0918903019620E1DC
:1009B00030E0B9010E9495078C179D0731F18091B5
:1009C000E6029091E7020196B9010E949507909383
:1009D000E7028093E6028091E6029091E702DC0153
:1009E000AA0FBB1F63E0880F991F6A95E1F7A80F54
:1009F000B91FA851BD4FC42FDE2F8AE009900D9278
:100A00008150E1F781E090E002C080E090E0DF916A
:100A1000CF9108959C014091E6025091E7028091A8
:100A20008803909189034817590731F18091880311
:100A300090918903019660E170E00E949507909380
:100A40008903809388038091880390918903FC0136
:100A5000EE0FFF1FA3E0880F991FAA95E1F7E80F9B
:100A6000F91FD901E851FD4F8AE001900D928150A4
:100A7000E1F781E090E0089580E090E00895AF9282
:100A8000BF92CF92DF92EF92FF920F931F93CF937B
:100A9000DF93CDB7DEB7CA54D0400FB6F894DEBFAF
:100AA0000FBECDBF0E946807009709F47CC0CE013D
:100AB0000B960E948109009729F485E692E00E9436
:100AC000C009FFCFCE010B966AE772E00E940909C8
:100AD0008C0180E090E06AE772E00E9409097C01E5
:100AE00080E090E06AE772E00E9409095C0180E022
:100AF00090E06AE772E00E9409096C010115110596
:100B000009F445C0C80162E872E00E940E0900972E
:100B100021F4C7010E94BA003AC0C80168E872E037
:100B20000E940E09009779F5E114F10419F48EE89A
:100B300092E02BC0C7010E94EB088C01C50162E85E
:100B400072E00E940E090097D9F48AEB90E09A8334
:100B50008983CE010396C114D10411F0B60102C0FD
:100B600066E972E00E941709F894C80160E071E03C
:100B70000E949507CE0101960E946F06789407C0E7
:100B800087E992E002C08FE992E00E94C0090F92CB
:100B90000F928FE792E0EDB7FEB7928381830E94B8
:100BA000A7090F900F90C65BDF4F0FB6F894DEBF1A
:100BB0000FBECDBFDF91CF911F910F91FF90EF90AE
:100BC000DF90CF90BF90AF9008951092B200E6EB07
:100BD000F0E0808180628083E0E7F0E080818160E6
:100BE0008083E1EBF0E0808181608083808182609E
:100BF00080830895CF93DF930DC08C859D8590935E
:100C0000E3028093E202CE0102960E94CA04CE0162
:100C10000E945208C091E202D091E302209721F095
:100C200088819981009749F3DF91CF910895EF92E0
:100C3000FF920F931F93CF93DF938AE090E00E947F
:100C4000B909C091E202D091E30200E010E082EB2A
:100C5000E82E82E0F82E20C088819981080F191FA4
:100C600000D000D0EDB7FEB73196ADB7BEB7129643
:100C7000FC92EE92119793838283158304830E94E2
:100C8000A7090C84DD85C02D8DB79EB706960FB6DB
:100C9000F8949EBF0FBE8DBF2097F1F68AE090E0DA
:100CA0000E94B909DF91CF911F910F91FF90EF90B2
:100CB000089509C0FC01248535853093E302209313
:100CC000E2020E9452088091E2029091E3020097B2
:100CD00089F708958EE090E00E94BC070895EF9296
:100CE000FF920F931F93CF93DF93F82EE92E8B0182
:100CF0000E946A06EC01DC011296EF2DFE2D8AE0BF
:100D000001900D928150E1F719830883E091E2028E
:100D1000F091E302309729F4D093E302C093E2020A
:100D20002FC040E050E020E030E001C0FD018081B4
:100D30009181280F391F2017310734F4A485B58518
:100D4000AF01109799F701C0DF014115510579F402
:100D50008D919C911197801B910B11969C938E9372
:100D6000BD87AC87D093E302C093E20224C0109702
:100D700051F4021B130B19830883FA01D587C4872A
:100D80001D861C8618C08D919C911197B901681B16
:100D9000790B9801261B370B398328838D919C9101
:100DA0001197821B930B11969C938E93FA01D58712
:100DB000C487BD87AC87DF91CF911F910F91FF90C2
:100DC000EF900895F8940E94650478948823D1F3F5
:100DD000843011F090E008958FEF9FEF0895CF9346
:100DE000C82F8A3019F48DE00E94EF06F8948091A4
:100DF000CC03882359F4C093C60081E08093CC03D0
:100E00000AC0789486EF8A95F1F7F8948C2F0E94A7
:100E100082040097B1F3789481E090E0CF91089537
:100E20008BEC92E090931A04809319048DEB92E07E
:100E300090931804809317041092CC030E943204FC
:100E40001092C50087E08093C400E0ECF0E0808160
:100E500082608083E1ECF0E0808188608083808123
:100E600080648083808180618083808180688083CA
:100E70000895CF93C82F8A3019F48DE00E94390766
:100E80008091CC03882331F4C093C60081E0809325
:100E9000CC0303C08C2F0E948204CF9108958091CF
:100EA0008A0390918B032091D1033091D203821752
:100EB000930759F0019660E470E00E9495078D5207
:100EC0009C4FFC01808190E0089580E090E00895BF
:100ED0000E944F070895CF93DF93CDB7DEB72A97CF
:100EE0000FB6F894DEBF0FBECDBF0E9410070E9460
:100EF000C1040E94E5050F920F9282E692E0EDB7E1
:100F0000FEB7928381830E94A7090F900F90F894F7
:100F1000CE0101960E940A0578940097C1F3E981F9
:100F2000FA81CE0103961995F2CF97FB092E072679
:100F30000AD077FD04D00CD006D000201AF47095AA
:100F400061957F4F0895F6F7909581959F4F08958D
:100F5000AA1BBB1B51E107C0AA1FBB1FA617B707DF
:100F600010F0A61BB70B881F991F5A95A9F78095FB
:100F70009095BC01CD010895CF93DF93AC018230F1
:100F8000910510F442E050E0E0911504F091160450
:100F900020E030E0A0E0B0E024C08081918184179F
:100FA0009507D0F08417950771F48281938110978B
:100FB00029F013969C938E9312972CC0909316044D
:100FC0008093150427C02115310519F08217930766
:100FD00018F49C01BD01EF0192818381DF01E92FAB
:100FE000F82F3097D1F621153105F9F0C901841B8E
:100FF000950B8430910580F48A819B816115710580
:1010000021F0FB019383828304C0909316048093A4
:101010001504FE01329642C0FE01E80FF91F41930C
:10102000519302979983888339C0809113049091DA
:101030001404009741F48091DB029091DC029093BC
:101040001404809313042091D9023091DA022115FF
:10105000310541F42DB73EB78091DD029091DE025B
:10106000281B390BE0911304F0911404E217F307E5
:1010700098F42E1B3F0B2417350770F0CA01029617
:101080002817390748F08E0F9F1F90931404809300
:1010900013044193519302C0E0E0F0E0CF01DF91EF
:1010A000CF9108950F931F93CF93DF939C010097E7
:1010B00009F48CC0DC01129713961C921E921297B1
:1010C00060911504709116046115710589F48D9174
:1010D0009C911197820F931F209113043091140457
:1010E0002817390769F5B0931404A09313046EC050
:1010F000FB0140E050E001C0FC01EA17FB0730F4BF
:1011000082819381AF010097B9F71FC0E90122974F
:10111000FB83EA8308811981C901800F911F8E1713
:101120009F0759F480819181800F911F02969983C6
:101130008883828193819B838A834115510529F499
:10114000B0931604A093150441C0FA01B383A2839F
:10115000C191D191EC0FFD1FAE17BF0781F4F901CA
:10116000929182918C0F9D1F0296DA0111969C93A9
:101170008E938281938113969C938E931297E0E0D5
:10118000F0E002C0FB01BC01DB0112968D919C9145
:1011900013970097B9F7CB0102962D913C911197C7
:1011A000820F931F209113043091140428173907DC
:1011B00069F4309729F4109216041092150402C0B5
:1011C000138212827093140460931304DF91CF9101
:1011D0001F910F910895FC0188279927E894219188
:1011E0002032E9F3293010F02E30C8F32B3241F0D1
:1011F0002D3239F4689404C00E944509820F911D74
:10120000219120532A30C0F31EF4909581959F4F71
:10121000089544EE52E00E941E090895FB01DC018E
:101220008D91019080190110D9F3990B0895FB015C
:10123000DC0101900D920020E1F70895FA01A191DF
:10124000B081009719F41097E1F0CD01DC01CD01D8
:101250000D90002011F4C00113C0FB012191222345
:1012600019F02015D9F7F3CFFB012191201519F4BE
:101270001E92119606C02223C1F70D900020A1F7FF
:10128000D001FA01A193B08308957AE0979F902D41
:10129000879F802D910D11240895CF92DF92EF92B8
:1012A000FF920F931F93CF93DF938C016A01FA0192
:1012B000838180FF1AC016161706BCF47B01E80173
:1012C0000EC0C6010E94110FFFEF8F3F9F0769F00C
:1012D00089930894E108F1088A30910521F021E012
:1012E000E216F10471F7188202C000E010E0C801B4
:1012F000DF91CF911F910F91FF90EF90DF90CF90F2
:1013000008950F931F93CF93DF938C01E0911704FF
:10131000F0911804838180FF12C0E80180911704C6
:10132000909118040E94110F2FEF8F3F920739F010
:1013300089938A30910591F72197188202C000E0C5
:1013400010E0C801DF91CF911F910F910895CF93C5
:10135000DF93CDB7DEB7FE01369661917191809132
:10136000190490911A04AF010E94100ADF91CF91E5
:1013700008956091190470911A040E94510F089504
:101380000F931F93CF93DF938C01E0911904F09199
:101390001A04838181FF1AC0C0E0D0E005C019950E
:1013A000009711F0CFEFDFEFF80181918F0160918D
:1013B000190470911A04DB011896ED91FC911997AC
:1013C000882369F78AE01995009711F0CFEFDFEFD6
:1013D000CE01DF91CF911F910F910895CF93DF93AD
:1013E000CDB7DEB72E970FB6F894DEBF0FBECDBFD8
:1013F00085E08C838C899D899A838983AE01485EC0
:101400005F4FCE0101966E897F890E94BB0D2E969B
:101410000FB6F894DEBF0FBECDBFDF91CF91089518
:101420002F923F924F925F926F927F928F929F92F4
:10143000AF92BF92CF92DF92EF92FF920F931F93E2
:10144000CF93DF93CDB7DEB72D970FB6F894DEBFFD
:101450000FBECDBF3C017D876C875A01FC0117820E
:101460001682838181FFC8C12E010894411C511C42
:10147000F3019381EC85FD8593FD859193FF819127
:10148000FD87EC87882309F4B3C1853241F493FDCD
:10149000859193FF8191FD87EC87853229F490E057
:1014A000B3010E94510FE4CFFF24EE2410E010326C
:1014B000B0F48B3269F08C3228F4803251F08332F0
:1014C00071F40BC08D3239F0803349F411602CC0B7
:1014D0001260146029C0186027C0106125C017FD74
:1014E0002EC0282F20532A3098F416FF08C08F2DC5
:1014F000880FF82EFF0CFF0CF80EF20E15C08E2D83
:10150000880FE82EEE0CEE0CE80EE20E10620CC016
:101510008E3221F416FD6CC1106406C08C3611F4B5
:10152000106802C0883659F4EC85FD8593FD8591DD
:1015300093FF8191FD87EC87882309F0B8CF982F1E
:101540009554933018F09052933038F424E030E002
:10155000A20EB31E3FE339830FC0833631F08337C9
:1015600081F0833509F05AC022C0F501808189835A
:1015700022E030E0A20EB31E21E0C22ED12C4201A7
:1015800014C092E0292E312C2A0C3B1CF5018080DE
:10159000918016FF03C06F2D70E002C06FEF7FEFE8
:1015A000C4010E94060F6C0151011F7715C082E033
:1015B000282E312C2A0C3B1CF5018080918016FFCF
:1015C00003C06F2D70E002C06FEF7FEFC4010E9477
:1015D000FB0E6C011068510113FD1CC006C080E2B7
:1015E00090E0B3010E94510FEA948E2D90E0C8164E
:1015F000D906A8F30FC0F40117FD859117FF81915B
:101600004F0190E0B3010E94510FE110EA94089459
:10161000C108D108C114D10471F7E7C0843611F0B4
:10162000893651F5F50117FF07C080819181A281AC
:10163000B38124E030E008C080819181AA2797FD22
:10164000A095BA2F22E030E0A20EB31E012F0F7634
:10165000B7FF08C0B095A095909581959F4FAF4F6B
:10166000BF4F0068BC01CD01A2012AE030E00E941A
:101670009A0FD82ED4183FC0853721F41F7E2AE058
:1016800030E020C0197F8F36A9F0803720F48835EC
:1016900009F0AEC00BC0803721F0883709F0A8C030
:1016A00001C0106114FF09C0146007C014FF08C016
:1016B000166006C028E030E005C020E130E002C03E
:1016C00020E132E0F50117FF07C06081718182815E
:1016D000938144E050E006C06081718180E090E039
:1016E00042E050E0A40EB51EA2010E949A0FD82E2F
:1016F000D418012F0F7706FF09C00E7FDF1430F4D6
:1017000004FF06C002FD04C00F7E02C01D2D01C0F3
:101710001F2D802F90E004FF0CC0FE01ED0DF11D88
:101720002081203311F4097E09C002FF06C01E5F2C
:1017300005C086789070009709F01F5F802E99246D
:1017400003FD12C000FF0DC0FD2C1E1550F4FE0C51
:10175000F11A1E2D06C080E290E0B3010E94510FE5
:101760001F5F1E15C0F304C01E1510F4E11A01C05E
:10177000EE2484FE0FC080E390E0B3010E94510F7D
:1017800082FE1FC081FE03C088E590E010C088E79C
:1017900090E00DC0C40186789070009791F081FCB4
:1017A00002C080E201C08BE207FD8DE290E0B30150
:1017B0000E94510F06C080E390E0B3010E94510FD8
:1017C000FA94DF14C0F3DA94F201ED0DF11D80817B
:1017D00090E0B3010E94510FDD20A9F706C080E21E
:1017E00090E0B3010E94510FEA94EE20C1F740CE81
:1017F000F3018681978102C08FEF9FEF2D960FB680
:10180000F894DEBF0FBECDBFDF91CF911F910F9136
:10181000FF90EF90DF90CF90BF90AF909F908F9010
:101820007F906F905F904F903F902F90089520FD94
:1018300009C0FC0123FD05C022FF02C0738362833F
:10184000518340830895CF92DF92EF92FF926B0114
:101850007C0144FD10C046FD10C0D601F701AA0F5F
:10186000BB1FEE1FFF1F1094D1F7CA0EDB1EEE1E2A
:10187000FF1E81E003C083E001C084E0CC0CDD1CCE
:10188000EE1CFF1C8150D1F7C20ED11CE11CF11CD3
:10189000B601C701FF90EF90DF90CF9008950F93AE
:1018A0001F93CF93DF938C01C8010E94110FEC01AD
:1018B00097FD08C00E94E80E0097B1F7CE01B8016D
:1018C0000E947D0FCE01DF91CF911F910F9108955E
:1018D000AF92BF92CF92DF92EF92FF920F931F933E
:1018E000CF93DF938C01D62F5A01C22F0E94110F84
:1018F0008B3219F08D3249F4C068D15009F461C0BF
:10190000C8010E94110F97FD5CC0CD7F2C2F207362
:10191000D1F48033C1F4D15009F43EC0C8010E9413
:10192000110F97FD39C0C260883711F0883549F42E
:10193000C064D15089F1C8010E94110F97FF03C004
:101940002BC0C6FFC061CC24DD247601282F205394
:10195000283080F0C4FD09C02A3060F0C6FF05C001
:101960002F7D322F3151363020F0B8010E947D0F8B
:1019700010C02750C701B6014C2F0E94230C6B01E9
:101980007C01C260D15059F0C8010E94110F97FF2D
:10199000DDCFC1FD04C015C0CC24DD247601C7FF16
:1019A00008C0F094E094D094C094C11CD11CE11CF8
:1019B000F11CC501B701A6012C2F0E94170C81E074
:1019C00001C080E0DF91CF911F910F91FF90EF90C8
:1019D000DF90CF90BF90AF9008954F925F926F923B
:1019E0007F928F929F92AF92BF92CF92DF92EF92AF
:1019F000FF920F931F93CF93DF93CDB7DEB7A097DE
:101A00000FB6F894DEBF0FBECDBF5C01062F7A0182
:101A10006901FE01319680E2DF011D928A95E9F7A6
:101A2000D50113961C91139760E070E020E040E030
:101A300030E04F0181E0682E712CF60113FD5591C5
:101A400013FF51916F01552309F47BC05E3519F4E2
:101A50006115710549F1832F90E0861797073CF4D3
:101A60005D3551F15D3219F4442301F103C0442383
:101A700009F4252F852F869586958695F401E80F24
:101A8000F11D852F8770230102C0440C551C8A95D7
:101A9000E2F7808184298083521751F0521710F4A5
:101AA0005F5FE8CF5150E6CF31E003C041E001C0B5
:101AB00040E06F5F7F4FC1CF442319F08E81806279
:101AC0008E83332351F0FE013196CE018196208121
:101AD00020952193E817F907D1F711E001C010E034
:101AE000C5010E94110F9C0197FD23C08695869524
:101AF0008695E1E0F0E0EC0FFD1FE80FF11D40815D
:101B000050E0C9018770907002C0559547958A953D
:101B1000E2F740FD05C0C901B5010E947D0F09C073
:101B2000E114F10419F0D7012D937D010150B9F6AC
:101B300002C0112331F4E114F10429F0F7011082FD
:101B400002C0CC24DD24C601A0960FB6F894DEBFF7
:101B50000FBECDBFDF91CF911F910F91FF90EF90FE
:101B6000DF90CF90BF90AF909F908F907F906F90BD
:101B70005F904F9008955F926F927F928F929F92A5
:101B8000AF92BF92CF92DF92EF92FF920F931F938B
:101B9000CF93DF930F92CDB7DEB77C015B013A01A3
:101BA000FC01178216829924EFC0812F90E00E94D9
:101BB000E80E009721F0C7010E944F0CE5C01532D6
:101BC00041F4F50103FD359103FF31915F01353299
:101BD00061F4C7010E94110F97FDE2C0181709F4C4
:101BE000D3C0B7010E947D0FDDC03A3241F403FD3E
:101BF000359103FF31915F015524539401C0552461
:101C0000882410C0F2E05F2A682D70E080E090E048
:101C100040E20E94230C862EF50103FD359103FF5F
:101C200031915F01232F20532A3060F351FE03C00E
:101C3000882019F4B7C088248A94383619F03C36C5
:101C400099F40AC0F50103FD359103FF31915F015D
:101C5000383651F4F8E05F2A44E0542AF50103FDD8
:101C6000359103FF31915F01332309F49BC084EE6A
:101C700090E0632F70E039830E94F00E3981009765
:101C800009F490C0852D50FC08C0F301008111813A
:101C900042E050E0640E751E02C000E010E03E36E7
:101CA00051F4F7014681578160E070E0C801252DAD
:101CB0000E94170C69C0333691F481FD02C088245C
:101CC0008394C7010E94110F97FD6AC00115110589
:101CD00019F0F80181938F018A9499F753C0C701D5
:101CE0003B3551F4682DA80195010E94ED0C5C0173
:101CF000009709F047C041C039830E944F0C3981D9
:101D000097FD4EC03F3661F1303728F4343629F163
:101D1000393649F52AC0333719F0353721F51DC05A
:101D2000C7010E94110F6C0197FD11C00E94E80EBF
:101D3000009729F0C601B7010E947D0F08C0011568
:101D4000110519F0F801C1928F018A9449F7011524
:101D50001105C1F0F801108215C0F0E25F2A05C03C
:101D600040E1542A02C050E4552AC701682DA80159
:101D7000252D0E94680C882329F4F7018381807344
:101D800079F410C050FE9394F7010381F50103FD2F
:101D9000159103FF11915F01112309F006CF02C0D5
:101DA000992019F0892D90E002C08FEF9FEF0F90DE
:101DB000DF91CF911F910F91FF90EF90DF90CF9027
:101DC000BF90AF909F908F907F906F905F9008959D
:101DD00091110EC1803219F089508550D0F70895C5
:101DE000FC010590061621F00020D9F7C0010895E6
:101DF0003197CF010895FC010590615070400110AA
:101E0000D8F7809590958E0F9F1F0895FC01615023
:101E1000704001900110D8F7809590958E0F9F1F0C
:101E20000895CF93DF93EC012B8120FF35C026FF6F
:101E300009C02F7B2B838E819F8101969F838E8388
:101E40008A8128C022FF0FC0E881F981808199270B
:101E500087FD9095009719F420622B831DC0319661
:101E6000F983E88311C0EA85FB85CE01199597FFB8
:101E70000BC02B813FEF8F3F930711F480E101C02E
:101E800080E2822B8B8308C02E813F812F5F3F4FE2
:101E90003F832E8390E002C08FEF9FEFDF91CF91C1
:101EA00008950F931F93CF93DF938C01EB018B81E8
:101EB00081FF1BC082FF0DC02E813F818C819D81DF
:101EC0002817390764F4E881F9810193F983E883DD
:101ED00006C0E885F985802F1995009731F48E8129
:101EE0009F8101969F838E8302C00FEF1FEFC80171
:101EF000DF91CF911F910F910895FB01238120FF66
:101F000013C026FD11C03FEF8F3F930781F08283FE
:101F1000922F90649F7D938326813781215030409A
:101F20003783268390E008958FEF9FEF08958FEF1A
:101F30009FEF0895FA01AA27283051F1203181F14D
:101F4000E8946F936E7F6E5F7F4F8F4F9F4FAF4FC1
:101F5000B1E03ED0B4E03CD0670F781F891F9A1FD4
:101F6000A11D680F791F8A1F911DA11D6A0F711D88
:101F7000811D911DA11D20D009F468943F912AE094
:101F8000269F11243019305D3193DEF6CF0108957C
:101F9000462F4770405D4193B3E00FD0C9F7F6CFAD
:101FA000462F4F70405D4A3318F0495D31FD405275
:101FB000419302D0A9F7EACFB4E0A695979587950B
:101FC00077956795BA95C9F70097610571050895EA
:101FD0009B01AC010A2E0694579547953795279596
:101FE000BA95C9F7620F731F841F951FA01D08952E
:0A1FF000992788270895F894FFCF81
:101FFA0025642069732061207072696D65206E7591
:10200A006D626572202121210A00636F756E743D2D
:10201A0025640A0025642069732061207072696D45
:10202A0065206E756D626572210A00636F756E7444
:10203A00203D2025640A003E20003E3E2000256403
:10204A0025632564002564000001002D2D3E2563CB
:10205A0020002420006C6F676F75742C20676F6FE7
:10206A006420627965202121210020090A0D0024BB
:10207A0020007072696D650074696D6572002121B6
:10208A00212D32323200002121212D3333330055E4
:10209A006E6B6E6F776E20636F6D6D616E642E2E40
:1020AA002E002D2D3E2564282564292000000000DD
:1020BA0001000000000000E206000000000002002B
:1020CA00000000EF060000000000001D04200000D0
:00000001FF
