:100000000C9446000C9466000C9466000C946600F8
:100010000C9466000C9466000C9466000C946600C8
:100020000C9466000C9466000C9466000C946600B8
:100030000C9466000C9466000C9466000C946600A8
:100040000C9466000C9466000C94E4010C94660019
:100050000C94B6010C9466000C9466000C94660037
:100060000C9466000C9466000C9466000C94660078
:100070000C9466000C9466000C9466000C94660068
:100080000C9466000C9466000C94660011241FBE4C
:10009000CFEFD0E1DEBFCDBF11E0A0E0B1E0E8E2FC
:1000A000FCE000E00BBF02C007900D92A237B10741
:1000B000D9F71BBE12E0A2E7B1E001C01D92A33048
:1000C000B107E1F70E9418020C9412060C9400008C
:1000D0001092B9011092B8011092B7011092B601B6
:1000E0001092BB011092BA01109275011092740126
:1000F0000895482F2091BA013091BB012F5F3F4FE7
:10010000C90160E470E00E945B029C01809174016F
:10011000909175012817390759F03093BB0120934E
:10012000BA0124543E4FF901408381E090E00895E4
:1001300080E090E008958091740190917501209184
:10014000BA013091BB012817390779F0019660E4B4
:1001500070E00E945B029093750180937401845457
:100160009E4FFC01808190E0089580E090E008952A
:10017000482F2091B8013091B9012F5F3F4FC9013D
:1001800060E470E00E945B029C018091B601909156
:10019000B7012817390759F03093B9012093B801F6
:1001A0002A583E4FF901408381E090E0089580E0B5
:1001B00090E008958091B6019091B7012091B80127
:1001C0003091B9012817390779F0019660E470E0A1
:1001D0000E945B029093B7018093B6018A589E4FAC
:1001E000FC01808190E0089580E090E00895CF9335
:1001F000DF93FC0162E070E00E945B02EB0122E011
:1002000030E008C0CF01B9010E945B02009741F0C5
:100210002F5F3F4FC217D307ACF781E090E002C0D9
:1002200080E090E0DF91CF910895CF92DF92EF923E
:10023000FF920F931F93CF93DF937C0100E010E0B8
:10024000C2E0D0E021E3C22E21E0D22E16C0CE01C2
:100250000E94F700009781F00F5F1F4F00D000D081
:10026000EDB7FEB7D282C182D483C3830E94EB0272
:100270000F900F900F900F902196EC16FD063CF713
:1002800000D000D08CE491E0EDB7FEB7928381837B
:10029000148303830E94EB020F900F900F900F9036
:1002A000DF91CF911F910F91FF90EF90DF90CF9052
:1002B0000895CF93C82F8A3019F48DE00E94590118
:1002C000F8948091FC01882359F4CCB981E08093A3
:1002D000FC010BC0789481E28A95F1F70000F89454
:1002E0008C2F0E94B8000097A9F3789481E090E0E9
:1002F000CF910895F8940E949B0078948823D1F3BD
:10030000843011F090E008958FEF9FEF089586E517
:1003100091E09093FE018093FD0184E691E090933B
:1003200000028093FF010E9468001092FC0110926D
:10033000900087E089B9599A539A569A549A579AD5
:100340000895CF93C82F8A3019F48DE00E94A1013F
:100350008091FC01882329F4CCB981E08093FC01D1
:1003600003C08C2F0E94B800CF9108951F920F9266
:100370000FB60F920BB60F9211242F933F934F930A
:100380005F936F937F938F939F93AF93BF93EF93FD
:10039000FF930E94DA00882319F41092FC0101C037
:1003A0008CB9FF91EF91BF91AF919F918F917F9108
:1003B0006F915F914F913F912F910F900BBE0F90D6
:1003C0000FBE0F901F9018951F920F920FB60F92AD
:1003D0000BB60F9211242F933F934F935F936F931C
:1003E0007F938F939F93AF93BF93CF93EF93FF939D
:1003F000CCB1C43031F0CD3009F4CAE08C2F0E946A
:10040000A1018C2F0E947900FF91EF91CF91BF91B4
:10041000AF919F918F917F916F915F914F913F919C
:100420002F910F900BBE0F900FBE0F901F9018953D
:10043000CF93DF93CDB7DEB7C058D0400FB6F89456
:10044000DEBF0FBECDBF0E94870100E011E000D0EB
:10045000EDB7FEB7128301830E94EB020F900F905D
:100460004091FD015091FE01CE01019660E870E0DF
:100470000E94B7020097D1F0CE01019669E07DE0BD
:100480000E948202009719F7CE01019663E071E0A5
:100490000E948702009729F480ED97E00E941501E1
:1004A000D6CF89E091E00E94FD02D1CF8CE191E0AE
:1004B0000E94FD02FFCF97FB092E07260AD077FD89
:1004C00004D00CD006D000201AF4709561957F4FAF
:1004D0000895F6F7909581959F4F0895AA1BBB1B31
:1004E00051E107C0AA1FBB1FA617B70710F0A61B34
:1004F000B70B881F991F5A95A9F780959095BC0155
:10050000CD01089542E751E00E9490020895FB0159
:10051000DC018D91019080190110D9F3990B089598
:10052000FA01A191B081009719F41097E1F0CD0183
:10053000DC01CD010D90002011F4C00113C0FB01BE
:100540002191222319F02015D9F7F3CFFB01219136
:10055000201519F41E92119606C02223C1F70D90A2
:100560000020A1F7D001FA01A193B0830895CF92A2
:10057000DF92EF92FF920F931F93CF93DF938C0143
:100580006A01FA01838180FF1AC016161706BCF4AF
:100590007B01E8010EC0C6010E944805FFEF8F3FB6
:1005A0009F0769F089930894E108F1088A30910562
:1005B00021F021E0E216F10471F7188202C000E098
:1005C00010E0C801DF91CF911F910F91FF90EF9044
:1005D000DF90CF900895CF93DF93CDB7DEB7FE01C4
:1005E0003596619171918091FF0190910002AF0168
:1005F0000E942B03DF91CF9108950F931F93CF9308
:10060000DF938C01E091FF01F0910002838181FF73
:100610001AC0C0E0D0E005C00995009711F0CFEFF7
:10062000DFEFF80181918F016091FF01709100026D
:10063000DB011896ED91FC911997882369F78AE000
:100640000995009711F0CFEFDFEFCE01DF91CF9149
:100650001F910F9108952F923F924F925F926F9248
:100660007F928F929F92AF92BF92CF92DF92EF9242
:10067000FF920F931F93CF93DF93CDB7DEB72D97E4
:100680000FB6F894DEBF0FBECDBF3C017D876C87EF
:100690005A01FC0117821682838181FFC8C12E0195
:1006A0000894411C511CF3019381EC85FD8593FD59
:1006B000859193FF8191FD87EC87882309F4B3C16D
:1006C000853241F493FD859193FF8191FD87EC87FD
:1006D000853229F490E0B3010E948805E4CFFF241D
:1006E000EE2410E01032B0F48B3269F08C3228F432
:1006F000803251F0833271F40BC08D3239F0803387
:1007000049F411602CC01260146029C0186027C021
:10071000106125C017FD2EC0282F20532A3098F4D1
:1007200016FF08C08F2D880FF82EFF0CFF0CF80E57
:10073000F20E15C08E2D880FE82EEE0CEE0CE80E92
:10074000E20E10620CC08E3221F416FD6CC11064F2
:1007500006C08C3611F4106802C0883659F4EC8556
:10076000FD8593FD859193FF8191FD87EC8788231B
:1007700009F0B8CF982F9554933018F090529330D9
:1007800038F424E030E0A20EB31E3FE339830FC0FB
:10079000833631F0833781F0833509F05AC022C0A7
:1007A000F5018081898322E030E0A20EB31E21E0B2
:1007B000C22ED12C420114C092E0292E312C2A0CD9
:1007C0003B1CF5018080918016FF03C06F2D70E007
:1007D00002C06FEF7FEFC4010E943D056C01510123
:1007E0001F7715C082E0282E312C2A0C3B1CF50106
:1007F0008080918016FF03C06F2D70E002C06FEF04
:100800007FEFC4010E9432056C011068510113FD95
:100810001CC006C080E290E0B3010E948805EA9403
:100820008E2D90E0C816D906A8F30FC0F40117FD6D
:10083000859117FF81914F0190E0B3010E948805D7
:10084000E110EA940894C108D108C114D10471F7E9
:10085000E7C0843611F0893651F5F50117FF07C05E
:1008600080819181A281B38124E030E008C0808141
:100870009181AA2797FDA095BA2F22E030E0A20E21
:10088000B31E012F0F76B7FF08C0B095A0959095C5
:1008900081959F4FAF4FBF4F0068BC01CD01A201B2
:1008A0002AE030E00E94B405D82ED4183FC0853726
:1008B00021F41F7E2AE030E020C0197F8F36A9F096
:1008C000803720F4883509F0AEC00BC0803721F0A6
:1008D000883709F0A8C001C0106114FF09C0146076
:1008E00007C014FF08C0166006C028E030E005C04D
:1008F00020E130E002C020E132E0F50117FF07C03F
:10090000608171818281938144E050E006C0608102
:10091000718180E090E042E050E0A40EB51EA2019B
:100920000E94B405D82ED418012F0F7706FF09C0F6
:100930000E7FDF1430F404FF06C002FD04C00F7EFA
:1009400002C01D2D01C01F2D802F90E004FF0CC0A0
:10095000FE01ED0DF11D2081203311F4097E09C047
:1009600002FF06C01E5F05C086789070009709F0F0
:100970001F5F802E992403FD12C000FF0DC0FD2CC7
:100980001E1550F4FE0CF11A1E2D06C080E290E0F8
:10099000B3010E9488051F5F1E15C0F304C01E1519
:1009A00010F4E11A01C0EE2484FE0FC080E390E051
:1009B000B3010E94880582FE1FC081FE03C088E546
:1009C00090E010C088E790E00DC0C4018678907078
:1009D000009791F081FC02C080E201C08BE207FD2C
:1009E0008DE290E0B3010E94880506C080E390E0AC
:1009F000B3010E948805FA94DF14C0F3DA94F2017F
:100A0000ED0DF11D808190E0B3010E948805DD208D
:100A1000A9F706C080E290E0B3010E948805EA943D
:100A2000EE20C1F740CEF3018681978102C08FEF9F
:100A30009FEF2D960FB6F894DEBF0FBECDBFDF91AE
:100A4000CF911F910F91FF90EF90DF90CF90BF90CB
:100A5000AF909F908F907F906F905F904F903F905E
:100A60002F900895FC010590615070400110D8F757
:100A7000809590958E0F9F1F0895FC0161507040E6
:100A800001900110D8F7809590958E0F9F1F0895C3
:100A9000CF93DF93EC012B8120FF35C026FF09C0E7
:100AA0002F7B2B838E819F8101969F838E838A81EA
:100AB00028C022FF0FC0E881F9818081992787FD36
:100AC0009095009719F420622B831DC03196F9830D
:100AD000E88311C0EA85FB85CE01099597FF0BC01D
:100AE0002B813FEF8F3F930711F480E101C080E23B
:100AF000822B8B8308C02E813F812F5F3F4F3F8326
:100B00002E8390E002C08FEF9FEFDF91CF91089589
:100B10000F931F93CF93DF938C01EB018B8181FFA8
:100B20001BC082FF0DC02E813F818C819D812817C3
:100B3000390764F4E881F9810193F983E88306C0F9
:100B4000E885F985802F0995009731F48E819F8182
:100B500001969F838E8302C00FEF1FEFC801DF91C4
:100B6000CF911F910F910895FA01AA27283051F1D2
:100B7000203181F1E8946F936E7F6E5F7F4F8F4FCE
:100B80009F4FAF4FB1E03ED0B4E03CD0670F781F2D
:100B9000891F9A1FA11D680F791F8A1F911DA11D12
:100BA0006A0F711D811D911DA11D20D009F468944B
:100BB0003F912AE0269F11243019305D3193DEF6F3
:100BC000CF010895462F4770405D4193B3E00FD0A9
:100BD000C9F7F6CF462F4F70405D4A3318F0495D94
:100BE00031FD4052419302D0A9F7EACFB4E0A69577
:100BF0009795879577956795BA95C9F70097610599
:100C0000710508959B01AC010A2E069457954795EE
:100C100037952795BA95C9F7620F731F841F951FE3
:080C2000A01D0895F894FFCF18
:100C28002420007072696D6500556E6B6E6F776E6B
:100C380020636F6D6D616E642E2E2E006C6F676F72
:100C480075742C20676F6F642062796520212121DB
:100C58000025642069732061207072696D652C20FD
:100C68006E756D626572202121210A00636F756EB1
:100C7800743D25640A000000000100000000000027
:100C88007A01000000000002000000005901000085
:020C980000005A
:00000001FF
