:100000000C9478000C949A000C949A000C949A002A
:100010000C949A000C949A000C949A000C949A00F8
:100020000C949A000C949A000C949A000C949A00E8
:100030000C949A000C949A000C949A000C949A00D8
:100040000C949A000C949A000C949A000C949A00C8
:100050000C949A000C949A000C949A000C949A00B8
:100060000C949A000C9465020C949A000C9436023D
:100070000C949A000C949A000C949A000C949A0098
:100080000C949A000C949A000C949A000C949A0088
:100090000C949A000C949A000C949A000C949A0078
:1000A0000C949A000C949A000C949A000C949A0068
:1000B0000C949A000C949A000C949A000C949A0058
:1000C0000C949A000C949A000C949A000C949A0048
:1000D0000C949A000C949A000C949A000C949A0038
:1000E0000C949A006364696E6F70737578585B0046
:1000F00011241FBECFEFD1E2DEBFCDBF00E00CBFA9
:1001000012E0A0E0B2E0ECE5FCE100E00BBF02C0D1
:1001100007900D92AE3BB107D9F71BBE13E0AEEBD3
:10012000B2E001C01D92A735B107E1F70E94420578
:100130000C942C0E0C940000CF93DF93FC0162E032
:1001400070E00E94E105EB0122E030E008C0CF0141
:10015000B9010E94E105009741F02F5F3F4FC217A0
:10016000D307ACF781E090E002C080E090E0DF913F
:10017000CF910895CF92DF92EF92FF920F931F934A
:10018000CF93DF93009721F00E9437077C0104C0D2
:1001900090EDE92E97E0F92E00E010E0C2E0D0E00B
:1001A00080E0C82E82E0D82E16C0CE010E949C00AE
:1001B000009781F00F5F1F4F00D00F92EDB7FEB791
:1001C000D282C182D483C3830E94C6070F900F904E
:1001D0000F900F902196EC16FD063CF700D00F9281
:1001E00087E192E0EDB7FEB79283818314830383A6
:1001F0000E94C6070F900F900F900F90DF91CF9144
:100200001F910F91FF90EF90DF90CF900895EF92A4
:10021000FF921F93CF93DF93CDB7DEB728970FB62A
:10022000F894DEBF0FBECDBF009719F0FC0110811E
:1002300001C011E623E2E22E22E0F22E0F920F928D
:10024000EDB7FEB7F282E1820E94C6070F900F90D1
:100250004091510350915203CE01019668E070E045
:100260000E9492070097C9F00E949B022981FC011D
:1002700020831182183629F0143731F0143651F4E6
:1002800006C00E94A302DACF0E94B802D7CF0E9414
:100290000603D4CF0E94CF02D1CF0E943D030E941B
:1002A0006A0328960FB6F894DEBF0FBECDBFDF916C
:1002B000CF911F91FF90EF9008950F931F93CF93CD
:1002C000DF93CDB7DEB762970FB6F894DEBF0FBEEF
:1002D000CDBF06E212E00F920F92EDB7FEB7128388
:1002E00001830E94C6070F900F90409151035091D7
:1002F0005203CE01019668E070E00E9492070097D9
:1003000061F0CE0101960E943707BC01009729F0E9
:10031000CE0109960E94CF04DECF0E9477040E948E
:10032000B90462960FB6F894DEBF0FBECDBFDF9161
:10033000CF911F910F910895CF93DF9300D00F922B
:100340000F92CDB7DEB72DB73EB72A5030400FB66B
:10035000F8943EBF0FBE2DBFEDB7FEB73196ADB7D7
:10036000BEB712969C938E9311978AE292E0938384
:100370008283CE01049695838483CE010196978370
:100380008683CE010296918780870E941F0889810B
:10039000EDB7FEB73A960FB6F894FEBF0FBEEDBFAD
:1003A0008B3289F400D00F9281E392E0ADB7BEB7F3
:1003B00012969C938E9311978C819D812A813B810B
:1003C000820F931F41C08D3289F400D00F9281E3D8
:1003D00092E0EDB7FEB7928381838C819D812A8163
:1003E0003B81821B930B9483838332C08F32A9F4A9
:1003F00000D00F9281E392E0ADB7BEB712969C9306
:100400008E9311978C819D816A817B810E94E10589
:10041000EDB7FEB7748363831BC08A32F9F400D052
:100420000F9281E392E0ADB7BEB712969C938E9384
:1004300011974C815D812A813B81429FC001439F7E
:10044000900D529F900D112414969C938E931397A8
:100450000E94C6070F900F900F900F900F900F9073
:100460000F900F900F90DF91CF9108951F920F92F0
:100470000FB60F920BB60F9211242F933F934F9309
:100480005F936F937F938F939F93AF93BF93EF93FC
:10049000FF930E94ED03882319F41092C40202C056
:1004A0008093C600FF91EF91BF91AF919F918F9183
:1004B0007F916F915F914F913F912F910F900BBE64
:1004C0000F900FBE0F901F9018951F920F920FB6AE
:1004D0000F920BB60F9211242F933F934F935F937C
:1004E0006F937F938F939F93AF93BF93CF93EF932C
:1004F000FF93C091C600C43031F0CD3009F4CAE09A
:100500008C2F0E9461048C2F90E00E948C03FF913D
:10051000EF91CF91BF91AF919F918F917F916F910B
:100520005F914F913F912F910F900BBE0F900FBE97
:100530000F901F90189584E090E00E94080608959F
:100540000E949E060895FC018091BE029091BF0218
:10055000009739F4F093BF02E093BE021382128237
:10056000089593838283F093BF02E093BE020895BF
:10057000E091BE02F091BF02309731F49093BF0238
:100580008093BE0208C0F901228133812115310513
:10059000D1F793838283FC01138212820895CF9353
:1005A000DF93FC012091BE023091BF02211531057D
:1005B00031F040815181D901C0E0D0E00FC090936B
:1005C000BF028093BE02138212821DC012968D91CB
:1005D0009C911397ED01009739F0DC018D919C916E
:1005E00011978417950794F3209739F43383228366
:1005F000F093BF02E093BE0206C08A819B81938381
:100600008283FB83EA83DF91CF910895CF93DF93B9
:10061000FC012091BE023091BF022115310531F05D
:1006200040815181D901C0E0D0E00FC09093BF025A
:100630008093BE02138212821DC012968D919C91EE
:100640001397ED01009739F0DC018D919C91119782
:100650004817590794F3209739F433832283F09392
:10066000BF02E093BE0206C08A819B81938382838E
:10067000FB83EA83DF91CF9108950F931F93CF936C
:10068000DF938AE090E00E94D807C091BE02D0912B
:10069000BF0204E312E013C000D00F92EDB7FEB723
:1006A0001283018388819981948383830E94C60782
:1006B0000A80DB81C02D0F900F900F900F90209734
:1006C00059F78AE090E00E94D807DF91CF911F91FF
:1006D0000F91089509C0FC01228133813093BF023C
:1006E0002093BE020E949E068091BE029091BF029E
:1006F000009789F7089510920A0310920903109247
:1007000008031092070310920C0310920B0310922F
:10071000C6021092C5020895482F20910B03309114
:100720000C032F5F3F4FC90160E470E00E94E105B8
:100730009C018091C5029091C6022817390759F093
:1007400030930C0320930B03235F3C4FF90140834C
:1007500081E090E0089580E090E008958091C502E6
:100760009091C60220910B0330910C032817390792
:1007700079F0019660E470E00E94E1059093C60272
:100780008093C502835F9C4FFC01808190E00895B7
:1007900080E090E00895482F2091090330910A03EA
:1007A0002F5F3F4FC90160E470E00E94E1059C01AA
:1007B00080910703909108032817390759F0309367
:1007C0000A032093090329533D4FF901408381E037
:1007D00090E0089580E090E0089580910703909163
:1007E00008032091090330910A032817390779F08B
:1007F000019660E470E00E94E10590930803809305
:10080000070389539D4FFC01808190E0089580E0AB
:1008100090E00895F8940E94AE0378948823D1F371
:10082000843011F090E008958FEF9FEF0895CF93FB
:10083000C82F8A3019F48DE00E941704F894809133
:10084000C402882359F4C093C60081E08093C40297
:100850000AC0789486EF8A95F1F7F8948C2F0E945D
:10086000CB030097B1F3789481E090E0CF910895A5
:100870008EE992E0909354038093530380E992E0D1
:1008800090935203809351031092C4020E947B0301
:100890001092C50087E08093C400E0ECF0E0808116
:1008A00082608083E1ECF0E08081886080838081D9
:1008B0008064808380818061808380818068808380
:1008C0000895CF93C82F8A3019F48DE00E946104F7
:1008D0008091C402882331F4C093C60081E08093E4
:1008E000C40203C08C2F0E94CB03CF910895EF92D6
:1008F000FF920F931F93CF93DF938AE090E00E94C3
:10090000D807C091C002D091C10200E010E08CEA8B
:10091000E82E82E0F82E20C088819981080F191FE7
:1009200000D000D0EDB7FEB73196ADB7BEB7129686
:10093000FC92EE92119793838283158304830E9425
:10094000C6070C84DD85C02D8DB79EB706960FB601
:10095000F8949EBF0FBE8DBF2097F1F68AE090E01D
:100960000E94D807DF91CF911F910F91FF90EF90D8
:10097000089509C0FC01248535853093C102209378
:10098000C0020E949E068091C0029091C102009711
:1009900089F708958EE090E00E9408060895EF928E
:1009A000FF920F931F93CF93DF93F82EE92E8B01C5
:1009B0000E94CA04EC01DC011296EF2DFE2D8AE0A4
:1009C00001900D928150E1F719830883E091C002F4
:1009D000F091C102309729F4D093C102C093C002B4
:1009E0002FC040E050E020E030E001C0FD018081F8
:1009F0009181280F391F2017310734F4A485B5855C
:100A0000AF01109799F701C0DF014115510579F445
:100A10008D919C911197801B910B11969C938E93B5
:100A2000BD87AC87D093C102C093C00224C0109789
:100A300051F4021B130B19830883FA01D587C4876D
:100A40001D861C8618C08D919C911197B901681B59
:100A5000790B9801261B370B398328838D919C9144
:100A60001197821B930B11969C938E93FA01D58755
:100A7000C487BD87AC87DF91CF911F910F91FF9005
:100A8000EF900895CF93DF93CDB7DEB7C558D04030
:100A90000FB6F894DEBF0FBECDBF8DB79EB70A97D5
:100AA0000FB6F8949EBF0FBE8DBFEDB7FEB731965F
:100AB0008BE392E0ADB7BEB712969C938E931197DD
:100AC00083E492E093838283CE01049695838483AA
:100AD000CE01019697838683CE0102969187808707
:100AE0000E940D08EDB7FEB73A960FB6F894FEBF18
:100AF0000FBEEDBF0E94380478948AE4C82E82E0CD
:100B0000D82E0F920F92ADB7BEB71296DC92CE924E
:100B100011970E94C6070F900F904091510350917A
:100B20005203CE01069660E870E00E94920700979B
:100B300009F442C0CE0106966DE472E00E945507AA
:100B40008C010097F1F280E090E06DE472E00E9489
:100B500055077C01CE01069662E572E00E945A07B5
:100B6000009721F4C7010E94BA00CBCFC80168E505
:100B700072E00E945A07009721F4C7010E94070102
:100B8000C0CFC8016DE572E00E945A07009721F4BA
:100B9000C7010E945D01B5CFC80163E672E00E9403
:100BA0005A07009721F4C7010E949C01AACF87E64B
:100BB00092E00E94DF07A5CF8BE792E00E94DF075B
:100BC000FFCF97FB092E07260AD077FD04D00CD063
:100BD00006D000201AF4709561957F4F0895F6F7BE
:100BE000909581959F4F0895AA1BBB1B51E107C0AB
:100BF000AA1FBB1FA617B70710F0A61BB70B881FAD
:100C0000991F5A95A9F780959095BC01CD0108953B
:100C1000CF93DF93AC018230910510F442E050E0B5
:100C2000E0914F03F091500320E030E0A0E0B0E00D
:100C300024C08081918184179507D0F0841795078F
:100C400071F482819381109729F013969C938E936F
:100C500012972CC09093500380934F0327C0211507
:100C6000310519F08217930718F49C01BD01EF01BB
:100C700092818381DF01E92FF82F3097D1F621157A
:100C80003105F9F0C901841B950B8430910580F47E
:100C90008A819B816115710521F0FB019383828319
:100CA00004C09093500380934F03FE01329642C0DC
:100CB000FE01E80FF91F41935193029799838883AE
:100CC00039C080914D0390914E03009741F480917B
:100CD000B9029091BA0290934E0380934D032091F4
:100CE000B7023091B8022115310541F42DB73EB756
:100CF0008091BB029091BC02281B390BE0914D03FF
:100D0000F0914E03E217F30798F42E1B3F0B2417C4
:100D1000350770F0CA0102962817390748F08E0F80
:100D20009F1F90934E0380934D034193519302C0B4
:100D3000E0E0F0E0CF01DF91CF9108950F931F9392
:100D4000CF93DF939C01009709F48CC0DC011297CC
:100D500013961C921E92129760914F03709150034C
:100D60006115710589F48D919C911197820F931FE4
:100D700020914D0330914E032817390769F5B09340
:100D80004E03A0934D036EC0FB0140E050E001C054
:100D9000FC01EA17FB0730F482819381AF010097D1
:100DA000B9F71FC0E9012297FB83EA830881198103
:100DB000C901800F911F8E179F0759F4808191817F
:100DC000800F911F029699838883828193819B83F0
:100DD0008A834115510529F4B0935003A0934F0322
:100DE00041C0FA01B383A283C191D191EC0FFD1FE1
:100DF000AE17BF0781F4F901929182918C0F9D1F6C
:100E00000296DA0111969C938E93828193811396B8
:100E10009C938E931297E0E0F0E002C0FB01BC01CE
:100E2000DB0112968D919C9113970097B9F7CB0136
:100E300002962D913C911197820F931F20914D03A3
:100E400030914E032817390769F4309729F410922E
:100E5000500310924F0302C01382128270934E030C
:100E600060934D03DF91CF911F910F910895FC0185
:100E700088279927E89421912032E9F3293010F04E
:100E80002E30C8F32B3241F02D3239F4689404C06F
:100E90000E948A07820F911D219120532A30C0F3AE
:100EA0001EF4909581959F4F089542EC52E00E9468
:100EB00063070895FB01DC018D91019080190110F9
:100EC000D9F3990B0895FA01A191B081009719F413
:100ED0001097E1F0CD01DC01CD010D90002011F45F
:100EE000C00113C0FB012191222319F02015D9F76D
:100EF000F3CFFB012191201519F41E92119606C023
:100F00002223C1F70D900020A1F7D001FA01A1938F
:100F1000B08308957AE0979F902D879F802D910D43
:100F200011240895CF92DF92EF92FF920F931F93B7
:100F3000CF93DF938C016A01FA01838180FF1AC08D
:100F400016161706BCF47B01E8010EC0C6010E940C
:100F5000420DFFEF8F3F9F0769F089930894E108E6
:100F6000F1088A30910521F021E0E216F10471F7D1
:100F7000188202C000E010E0C801DF91CF911F91FC
:100F80000F91FF90EF90DF90CF900895CF93DF9374
:100F9000CDB7DEB7FE013696619171918091530312
:100FA00090915403AF010E944108DF91CF910895C1
:100FB00060915303709154030E94820D08950F9322
:100FC0001F93CF93DF938C01E0915303F09154036F
:100FD000838181FF1AC0C0E0D0E005C01995009759
:100FE00011F0CFEFDFEFF80181918F016091530392
:100FF00070915403DB011896ED91FC9119978823A9
:1010000069F78AE01995009711F0CFEFDFEFCE0175
:10101000DF91CF911F910F910895CF93DF93CDB7BB
:10102000DEB7FE01369661917191809151039091E6
:101030005203AF010E94EC0BDF91CF910895CF9343
:10104000DF93CDB7DEB72E970FB6F894DEBF0FBE95
:10105000CDBF85E08C838C899D899A838983AE017D
:10106000485E5F4FCE0101966E897F890E94EC0B2E
:101070002E960FB6F894DEBF0FBECDBFDF91CF9195
:1010800008952F923F924F925F926F927F928F922C
:101090009F92AF92BF92CF92DF92EF92FF920F9307
:1010A0001F93CF93DF93CDB7DEB72D970FB6F8948C
:1010B000DEBF0FBECDBF3C017D876C875A01FC01AE
:1010C00017821682838181FFC8C12E010894411CBA
:1010D000511CF3019381EC85FD8593FD859193FF70
:1010E0008191FD87EC87882309F4B3C1853241F4EF
:1010F00093FD859193FF8191FD87EC87853229F4DB
:1011000090E0B3010E94820DE4CFFF24EE2410E0B2
:101110001032B0F48B3269F08C3228F4803251F006
:10112000833271F40BC08D3239F0803349F4116091
:101130002CC01260146029C0186027C0106125C03F
:1011400017FD2EC0282F20532A3098F416FF08C010
:101150008F2D880FF82EFF0CFF0CF80EF20E15C025
:101160008E2D880FE82EEE0CEE0CE80EE20E1062CB
:101170000CC08E3221F416FD6CC1106406C08C3692
:1011800011F4106802C0883659F4EC85FD8593FD92
:10119000859193FF8191FD87EC87882309F0B8CF73
:1011A000982F9554933018F09052933038F424E0EF
:1011B00030E0A20EB31E3FE339830FC0833631F017
:1011C000833781F0833509F05AC022C0F501808150
:1011D000898322E030E0A20EB31E21E0C22ED12C82
:1011E000420114C092E0292E312C2A0C3B1CF5013F
:1011F0008080918016FF03C06F2D70E002C06FEFFA
:101200007FEFC4010E94370D6C0151011F7715C09B
:1012100082E0282E312C2A0C3B1CF5018080918025
:1012200016FF03C06F2D70E002C06FEF7FEFC401A7
:101230000E942C0D6C011068510113FD1CC006C0EA
:1012400080E290E0B3010E94820DEA948E2D90E03E
:10125000C816D906A8F30FC0F40117FD859117FF32
:1012600081914F0190E0B3010E94820DE110EA9458
:101270000894C108D108C114D10471F7E7C08436BD
:1012800011F0893651F5F50117FF07C08081918172
:10129000A281B38124E030E008C080819181AA2737
:1012A00097FDA095BA2F22E030E0A20EB31E012FC9
:1012B0000F76B7FF08C0B095A095909581959F4F88
:1012C000AF4FBF4F0068BC01CD01A2012AE030E062
:1012D0000E94CB0DD82ED4183FC0853721F41F7E35
:1012E0002AE030E020C0197F8F36A9F0803720F443
:1012F000883509F0AEC00BC0803721F0883709F07F
:10130000A8C001C0106114FF09C0146007C014FF19
:1013100008C0166006C028E030E005C020E130E0DB
:1013200002C020E132E0F50117FF07C06081718142
:101330008281938144E050E006C06081718180E049
:1013400090E042E050E0A40EB51EA2010E94CB0D39
:10135000D82ED418012F0F7706FF09C00E7FDF1497
:1013600030F404FF06C002FD04C00F7E02C01D2D34
:1013700001C01F2D802F90E004FF0CC0FE01ED0D79
:10138000F11D2081203311F4097E09C002FF06C03F
:101390001E5F05C086789070009709F01F5F802E51
:1013A000992403FD12C000FF0DC0FD2C1E1550F442
:1013B000FE0CF11A1E2D06C080E290E0B3010E94DF
:1013C000820D1F5F1E15C0F304C01E1510F4E11A34
:1013D00001C0EE2484FE0FC080E390E0B3010E94C0
:1013E000820D82FE1FC081FE03C088E590E010C020
:1013F00088E790E00DC0C40186789070009791F066
:1014000081FC02C080E201C08BE207FD8DE290E02A
:10141000B3010E94820D06C080E390E0B3010E94F8
:10142000820DFA94DF14C0F3DA94F201ED0DF11D90
:10143000808190E0B3010E94820DDD20A9F706C0F3
:1014400080E290E0B3010E94820DEA94EE20C1F7A1
:1014500040CEF3018681978102C08FEF9FEF2D96DA
:101460000FB6F894DEBF0FBECDBFDF91CF911F91B5
:101470000F91FF90EF90DF90CF90BF90AF909F9033
:101480008F907F906F905F904F903F902F90089536
:1014900020FD09C0FC0123FD05C022FF02C07383AB
:1014A0006283518340830895CF92DF92EF92FF923F
:1014B0006B017C0144FD10C046FD10C0D601F70150
:1014C000AA0FBB1FEE1FFF1F1094D1F7CA0EDB1E21
:1014D000EE1EFF1E81E003C083E001C084E0CC0C5F
:1014E000DD1CEE1CFF1C8150D1F7C20ED11CE11C8B
:1014F000F11CB601C701FF90EF90DF90CF900895E7
:101500000F931F93CF93DF938C01C8010E94420D6C
:10151000EC0197FD08C00E94190D0097B1F7CE01AC
:10152000B8010E94AE0DCE01DF91CF911F910F91B6
:101530000895AF92BF92CF92DF92EF92FF920F93F6
:101540001F93CF93DF938C01D62F5A01C22F0E9495
:10155000420D8B3219F08D3249F4C068D15009F434
:1015600061C0C8010E94420D97FD5CC0CD7F2C2F49
:101570002073D1F48033C1F4D15009F43EC0C801C6
:101580000E94420D97FD39C0C260883711F088353E
:1015900049F4C064D15089F1C8010E94420D97FFFF
:1015A00003C02BC0C6FFC061CC24DD247601282FE8
:1015B0002053283080F0C4FD09C02A3060F0C6FFF7
:1015C00005C02F7D322F3151363020F0B8010E94F6
:1015D000AE0D10C02750C701B6014C2F0E94540A0F
:1015E0006B017C01C260D15059F0C8010E94420DCC
:1015F00097FFDDCFC1FD04C015C0CC24DD247601EA
:10160000C7FF08C0F094E094D094C094C11CD11CD2
:10161000E11CF11CC501B701A6012C2F0E94480A4C
:1016200081E001C080E0DF91CF911F910F91FF9089
:10163000EF90DF90CF90BF90AF9008954F925F9260
:101640006F927F928F929F92AF92BF92CF92DF92D2
:10165000EF92FF920F931F93CF93DF93CDB7DEB737
:10166000A0970FB6F894DEBF0FBECDBF5C01062F6A
:101670007A016901FE01319680E2DF011D928A95AF
:10168000E9F7D50113961C91139760E070E020E014
:1016900040E030E04F0181E0682E712CF60113FD2F
:1016A000559113FF51916F01552309F47BC05E35AD
:1016B00019F46115710549F1832F90E0861797079A
:1016C0003CF45D3551F15D3219F4442301F103C05E
:1016D000442309F4252F852F869586958695F40158
:1016E000E80FF11D852F8770230102C0440C551CA3
:1016F0008A95E2F7808184298083521751F052172E
:1017000010F45F5FE8CF5150E6CF31E003C041E015
:1017100001C040E06F5F7F4FC1CF442319F08E813D
:1017200080628E83332351F0FE013196CE01819683
:10173000208120952193E817F907D1F711E001C026
:1017400010E0C5010E94420D9C0197FD23C08695C3
:1017500086958695E1E0F0E0EC0FFD1FE80FF11DA6
:10176000408150E0C9018770907002C0559547953F
:101770008A95E2F740FD05C0C901B5010E94AE0D92
:1017800009C0E114F10419F0D7012D937D01015036
:10179000B9F602C0112331F4E114F10429F0F70184
:1017A000108202C0CC24DD24C601A0960FB6F894A6
:1017B000DEBF0FBECDBFDF91CF911F910F91FF9084
:1017C000EF90DF90CF90BF90AF909F908F907F90E1
:1017D0006F905F904F9008955F926F927F928F927B
:1017E0009F92AF92BF92CF92DF92EF92FF920F93B0
:1017F0001F93CF93DF930F92CDB7DEB77C015B01D0
:101800003A01FC01178216829924EFC0812F90E0E3
:101810000E94190D009721F0C7010E94800AE5C0BF
:10182000153241F4F50103FD359103FF31915F015C
:10183000353261F4C7010E94420D97FDE2C01817CE
:1018400009F4D3C0B7010E94AE0DDDC03A3241F4B5
:1018500003FD359103FF31915F015524539401C07D
:101860005524882410C0F2E05F2A682D70E080E0E3
:1018700090E040E20E94540A862EF50103FD359166
:1018800003FF31915F01232F20532A3060F351FE73
:1018900003C0882019F4B7C088248A94383619F018
:1018A0003C3699F40AC0F50103FD359103FF3191EF
:1018B0005F01383651F4F8E05F2A44E0542AF5011C
:1018C00003FD359103FF31915F01332309F49BC080
:1018D00084EE90E0632F70E039830E94210D3981FE
:1018E000009709F490C0852D50FC08C0F3010081D9
:1018F000118142E050E0640E751E02C000E010E06D
:101900003E3651F4F7014681578160E070E0C8012E
:10191000252D0E94480A69C0333691F481FD02C02A
:1019200088248394C7010E94420D97FD6AC0011567
:10193000110519F0F80181938F018A9499F753C02A
:10194000C7013B3551F4682DA80195010E941E0B7B
:101950005C01009709F047C041C039830E94800AAA
:10196000398197FD4EC03F3661F1303728F4343667
:1019700029F1393649F52AC0333719F0353721F5C1
:101980001DC0C7010E94420D6C0197FD11C00E944D
:10199000190D009729F0C601B7010E94AE0D08C0CD
:1019A0000115110519F0F801C1928F018A9449F7C8
:1019B00001151105C1F0F801108215C0F0E25F2A8F
:1019C00005C040E1542A02C050E4552AC701682DE1
:1019D000A801252D0E94990A882329F4F701838103
:1019E000807379F410C050FE9394F7010381F501E0
:1019F00003FD159103FF11915F01112309F006CF3B
:101A000002C0992019F0892D90E002C08FEF9FEF5E
:101A10000F90DF91CF911F910F91FF90EF90DF908A
:101A2000CF90BF90AF909F908F907F906F905F907E
:101A3000089591110EC1803219F089508550D0F768
:101A40000895FC010590061621F00020D9F7C00189
:101A500008953197CF010895FC01059061507040C1
:101A60000110D8F7809590958E0F9F1F0895FC0167
:101A70006150704001900110D8F7809590958E0FBD
:101A80009F1F0895CF93DF93EC012B8120FF35C07A
:101A900026FF09C02F7B2B838E819F8101969F8318
:101AA0008E838A8128C022FF0FC0E881F98180815E
:101AB000992787FD9095009719F420622B831DC00C
:101AC0003196F983E88311C0EA85FB85CE0119952B
:101AD00097FF0BC02B813FEF8F3F930711F480E1FD
:101AE00001C080E2822B8B8308C02E813F812F5F53
:101AF0003F4F3F832E8390E002C08FEF9FEFDF9137
:101B0000CF9108950F931F93CF93DF938C01EB0137
:101B10008B8181FF1BC082FF0DC02E813F818C8194
:101B20009D812817390764F4E881F9810193F983CD
:101B3000E88306C0E885F985802F1995009731F470
:101B40008E819F8101969F838E8302C00FEF1FEFCE
:101B5000C801DF91CF911F910F910895FB0123815F
:101B600020FF13C026FD11C03FEF8F3F930781F088
:101B70008283922F90649F7D9383268137812150A9
:101B800030403783268390E008958FEF9FEF0895CC
:101B90008FEF9FEF0895FA01AA27283051F12031E5
:101BA00081F1E8946F936E7F6E5F7F4F8F4F9F4FF1
:101BB000AF4FB1E03ED0B4E03CD0670F781F891F33
:101BC0009A1FA11D680F791F8A1F911DA11D6A0F01
:101BD000711D811D911DA11D20D009F468943F91B4
:101BE0002AE0269F11243019305D3193DEF6CF01B3
:101BF0000895462F4770405D4193B3E00FD0C9F779
:101C0000F6CF462F4F70405D4A3318F0495D31FDE5
:101C10004052419302D0A9F7EACFB4E0A695979538
:101C2000879577956795BA95C9F70097610571050E
:101C300008959B01AC010A2E069457954795379558
:101C40002795BA95C9F7620F731F841F951FA01DB2
:0C1C50000895992788270895F894FFCF85
:101C5C0025642069732061207072696D65206E7532
:101C6C006D626572210A00636F756E74203D2025CC
:101C7C00640A003E20003E3E200025642563256456
:101C8C00002564002D2D3E256320003132332A348B
:101C9C00353600256425632564002420000A0D09CF
:101CAC0020007072696D65006C6973740074696DE5
:101CBC0065720063616C00556E6B6E6F776E20639E
:101CCC006F6D6D616D6E642E2E2E006C6F676F756F
:101CDC00742C20676F6F64206279652021212100AC
:101CEC00000000010000000000000A0400000000D9
:101CFC000002000000001704000000002D2D3E25FE
:0E1D0C006428256429200000005703200000F1
:00000001FF
