:100000000C9478000C949A000C949A000C949A002A
:100010000C949A000C949A000C949A000C949A00F8
:100020000C949A000C949A000C949A000C949A00E8
:100030000C949A000C949A000C949A000C941D0352
:100040000C949A000C949A000C949A000C949A00C8
:100050000C949A000C949A000C949A000C949A00B8
:100060000C949A000C94B5020C949A000C9486029D
:100070000C949A000C9452030C949A000C949A00DD
:100080000C949A000C949A000C949A000C949A0088
:100090000C949A000C949A000C949A000C949A0078
:1000A0000C949A000C949A000C949A000C949A0068
:1000B0000C949A000C949A000C949A000C949A0058
:1000C0000C949A000C949A000C949A000C949A0048
:1000D0000C949A000C949A000C949A000C949A0038
:1000E0000C949A006364696E6F70737578585B0046
:1000F00011241FBECFEFD1E2DEBFCDBF00E00CBFA9
:1001000014E0A0E0B2E0E6E2F9E200E00BBF02C0DA
:1001100007900D92A431B107D9F71BBE15E0A4E1F9
:10012000B4E001C01D92A535B107E1F70E94990B1B
:100130000C9491140C940000CF93DF93FC0162E0C7
:1001400070E00E94C50BEB0122E030E008C0CF0157
:10015000B9010E94C50B009741F02F5F3F4FC217B6
:10016000D307ACF781E090E002C080E090E0DF913F
:10017000CF910895CF92DF92EF92FF920F931F934A
:10018000CF93DF93009741F0FC012081222321F0DF
:100190000E94520D8C0102C000ED17E0EE24FF24F6
:1001A000C2E0D0E080E0C82E82E0D82E17C0CE0199
:1001B0000E949C00009789F00894E11CF11C00D07B
:1001C0000F92EDB7FEB7D282C182D483C3830E945F
:1001D0000E0E0F900F900F900F9021960C171D0789
:1001E00034F700D00F928AE192E0EDB7FEB7928328
:1001F0008183F482E3820E940E0E0F900F900F9085
:100200000F90DF91CF911F910F91FF90EF90DF90B2
:10021000CF900895CF92DF92EF92FF920F931F93AA
:10022000CF93DF93009721F00E94520D7C0104C010
:1002300020EDE22E27E0F22E00E010E0C2E0D0E058
:1002400094E2C92E92E0D92E16C0CE010E949C00E5
:10025000009781F00F5F1F4F00D00F92EDB7FEB7F0
:10026000D282C182D483C3830E940E0E0F900F905E
:100270000F900F902196EC16FD063CF700D00F92E0
:100280008BE392E0EDB7FEB79283818314830383FF
:100290000E940E0E0F900F900F900F90DF91CF9154
:1002A0001F910F91FF90EF90DF90CF900895EF9204
:1002B000FF921F93CF93DF93CDB7DEB728970FB68A
:1002C000F894DEBF0FBECDBF009719F0FC0110817E
:1002D00001C011E637E4E32E32E0F32E0F920F92C5
:1002E000EDB7FEB7F282E1820E940E0E0F900F90E2
:1002F00040914F0550915005CE01019668E070E0A5
:100300000E94B40D0097C9F00E94B3032981FC013B
:1003100020831182183629F0143731F0143651F445
:1003200006C00E94BB03DACF0E94D003D7CF0E9441
:100330001E04D4CF0E94E703D1CF0E9455040E942F
:10034000820428960FB6F894DEBF0FBECDBFDF91B2
:10035000CF911F91FF90EF9008950F931F93CF932C
:10036000DF93CDB7DEB762970FB6F894DEBF0FBE4E
:10037000CDBF0AE412E00F920F92EDB7FEB71283E1
:1003800001830E940E0E0F900F9040914F055091E7
:100390005005CE01019668E070E00E94B40D009710
:1003A00061F0CE0101960E94520DBC01009729F028
:1003B000CE0109960E942C07DECF0E94D4060E942F
:1003C000160762960FB6F894DEBF0FBECDBFDF9161
:1003D000CF911F910F910895CF93DF9300D00F928B
:1003E0000F92CDB7DEB72DB73EB72A5030400FB6CB
:1003F000F8943EBF0FBE2DBFEDB7FEB73196ADB737
:10040000BEB712969C938E9311978EE492E09383DD
:100410008283CE01049695838483CE0101969783CF
:100420008683CE010296918780870E94840E8981FF
:10043000EDB7FEB73A960FB6F894FEBF0FBEEDBF0C
:100440008B3289F400D00F9285E592E0ADB7BEB74C
:1004500012969C938E9311978C819D812A813B816A
:10046000820F931F41C08D3289F400D00F9285E531
:1004700092E0EDB7FEB7928381838C819D812A81C2
:100480003B81821B930B9483838332C08F32A9F408
:1004900000D00F9285E592E0ADB7BEB712969C935F
:1004A0008E9311978C819D816A817B810E94C50BFF
:1004B000EDB7FEB7748363831BC08A32F9F400D0B2
:1004C0000F9285E592E0ADB7BEB712969C938E93DE
:1004D00011974C815D812A813B81429FC001439FDE
:1004E000900D529F900D112414969C938E93139708
:1004F0000E940E0E0F900F900F900F900F900F9084
:100500000F900F900F90DF91CF9108951F920F924F
:100510000FB60F920BB60F9211242F933F934F9368
:100520005F936F937F938F939F93AF93BF93EF935B
:10053000FF930E940505882319F41092040502C058
:100540008093C600FF91EF91BF91AF919F918F91E2
:100550007F916F915F914F913F912F910F900BBEC3
:100560000F900FBE0F901F9018951F920F920FB60D
:100570000F920BB60F9211241F932F933F934F931B
:100580005F936F937F938F939F93AF93BF93EF93FB
:10059000FF93CF93DF93CDB7DEB72A97DEBFCDBFF2
:1005A0001091C6001B3161F480915C0290915D0254
:1005B00001968170907090935D0280935C0224C0DC
:1005C000143069F01D3009F41AE020915C0230917A
:1005D0005D022115310519F0812F0E94F607812F48
:1005E0000E94A404143011F01A3071F480EF95E0E9
:1005F0009A838983CE01039668E572E00E947E0D9E
:10060000CE0101960E942B052A96DEBFCDBFDF9159
:10061000CF91FF91EF91BF91AF919F918F917F917A
:100620006F915F914F913F912F911F910F900BBE52
:100630000F900FBE0F901F9018951F920F920FB63C
:100640000F920BB60F9211242F933F934F935F930A
:100650006F937F938F939F93AF93BF93EF93FF938A
:10066000E0911A04F0911B04309749F08081918148
:10067000019791838083009711F40E94B706FF9140
:10068000EF91BF91AF919F918F917F916F915F910A
:100690004F913F912F910F900BBE0F900FBE0F9077
:1006A0001F9018951F920F920FB60F920BB60F92D4
:1006B00011240F931F932F933F934F935F936F9347
:1006C0007F938F939F93AF93BF93EF93FF93CF93BA
:1006D000DF93CDB7DEB72897DEBFCDBF809178001E
:1006E00090917900EAE7F0E020812F77208300D015
:1006F00000D0EDB7FEB731968E010F5F1F4FADB73B
:10070000BEB712961C930E93119729E532E03383FE
:1007100022839370958384830E94550E8DB79EB774
:1007200006960FB6F8949EBF0FBE8DBFC8010E94FB
:10073000A0052896DEBFCDBFDF91CF91FF91EF914D
:10074000BF91AF919F918F917F916F915F914F91E9
:100750003F912F911F910F910F900BBE0F900FBEE5
:100760000F901F90189584E090E00E94230C08954C
:100770000E94B90C0895FC01809114049091150415
:10078000009739F4F0931504E09314041382128255
:10079000089593838283F0931504E09314040895DD
:1007A000E0911404F0911504309731F490931504FE
:1007B0008093140408C0F901228133812115310589
:1007C000D1F793838283FC01138212820895CF9321
:1007D000DF93FC012091140430911504211531059B
:1007E00031F040815181D901C0E0D0E00FC0909339
:1007F000150480931404138212821DC012968D91E9
:100800009C911397ED01009739F0DC018D919C913B
:1008100011978417950794F3209739F43383228333
:10082000F0931504E093140406C08A819B8193839E
:100830008283FB83EA83DF91CF910895CF93DF9387
:10084000FC0120911404309115042115310531F07B
:1008500040815181D901C0E0D0E00FC090931504D0
:1008600080931404138212821DC012968D919C9164
:100870001397ED01009739F0DC018D919C91119750
:100880004817590794F3209739F433832283F09360
:100890001504E093140406C08A819B8193838283AC
:1008A000FB83EA83DF91CF9108950F931F93CF933A
:1008B000DF938AE090E00E94200EC0911404D09152
:1008C00015040EE512E013C000D00F92EDB7FEB78D
:1008D0001283018388819981948383830E940E0E01
:1008E0000A80DB81C02D0F900F900F900F90209702
:1008F00059F78AE090E00E94200EDF91CF911F917E
:100900000F91089509C0FC012281338130931504B1
:10091000209314040E94B90C809114049091150442
:10092000009789F708951092080510920705109214
:1009300006051092050510920A05109209051092FD
:10094000C3041092C2040895482F209109053091E4
:100950000A052F5F3F4FC90160E470E00E94C50B9C
:100960009C018091C2049091C3042817390759F063
:1009700030930A0520930905255F3A4FF90140831A
:1009800081E090E0089580E090E008958091C204B5
:100990009091C3042091090530910A052817390761
:1009A00079F0019660E470E00E94C50B9093C30457
:1009B0008093C204855F9A4FFC01808190E0089586
:1009C00080E090E00895482F2091070530910805B8
:1009D0002F5F3F4FC90160E470E00E94C50B9C018E
:1009E00080910505909106052817390759F0309335
:1009F0000805209307052C533B4FF901408381E004
:100A000090E0089580E090E0089580910505909130
:100A1000060520910705309108052817390779F058
:100A2000019660E470E00E94C50B909306058093E8
:100A300005058C539B4FFC01808190E0089580E078
:100A400090E0089510921F0410921E041092C104A9
:100A50001092C0040895CF93DF93482FE92F80911F
:100A60001E0490911F04C091C004D091C10401964E
:100A700020E130E0B9010E94C50B8C179D0731F1D0
:100A800080911E0490911F040196B9010E94C50B2C
:100A900090931F0480931E0480911E0490911F0464
:100AA000DC01AA0FBB1F63E0880F991F6A95E1F76D
:100AB000A80FB91FA05EBB4FC42FDE2F8AE009909C
:100AC0000D928150E1F781E090E002C080E090E07B
:100AD000DF91CF9108959C0140911E0450911F0415
:100AE0008091C0049091C1044817590731F1809159
:100AF000C0049091C104019660E170E00E94C50BB2
:100B00009093C1048093C0048091C0049091C1046B
:100B1000FC01EE0FFF1FA3E0880F991FAA95E1F7D4
:100B2000E80FF91FD901E05EFB4F8AE001900D92BA
:100B30008150E1F781E090E0089580E090E0089531
:100B4000FC012081222319F50E942D0881E090E00C
:100B500090931704809316048091160490911704C3
:100B60000097D1F700D00F9288E692E0EDB7FEB77C
:100B700092838183809118049091190494838383D4
:100B80000E940E0E0F900F900F900F9008950E94EC
:100B9000520D9C01B901882777FD8095982F0E94FE
:100BA0003E0929E030EF4CE85AE30E943D0820E07E
:100BB00030E04AE754E40E943D080E94B509DC0198
:100BC000CB01845F91406AE070E00E94C50B709396
:100BD00019046093180410921704109216040895D3
:100BE000AF92BF92CF92DF92EF92FF920F931F933B
:100BF000CF93DF93CDB7DEB7CA54D0400FB6F89489
:100C0000DEBF0FBECDBF0E942508009709F488C043
:100C1000CE010B960E94E80D009729F48BE892E034
:100C20000E94270EFFCFCE010B9660EA72E00E9471
:100C3000700D8C0180E090E060EA72E00E94700D1F
:100C40007C0180E090E060EA72E00E94700D5C013F
:100C500080E090E060EA72E00E94700D6C01011586
:100C6000110509F451C0C80168EA72E00E94750DCF
:100C7000009721F4C7010E94BA0046C0C8016EEA7D
:100C800072E00E94750D009779F5E114F10419F4F2
:100C900084EB92E037C0C7010E94520D8C01C50160
:100CA00068EA72E00E94750D0097D9F48AEB90E033
:100CB0009A838983CE010396C114D10411F0B60141
:100CC00002C06CEB72E00E947E0DF894C80160E0F7
:100CD00071E00E94C50BCE0101960E942C0778940A
:100CE00013C08DEB92E00EC0C80165EC72E00E946B
:100CF000750D009729F48CEB92E00E94A00504C0CA
:100D00008CEC92E00E94270E0F920F9285EA92E0FF
:100D1000EDB7FEB7928381830E940E0E0F900F9065
:100D2000C65BDF4F0FB6F894DEBF0FBECDBFDF91BD
:100D3000CF911F910F91FF90EF90DF90CF90BF90D8
:100D4000AF9008951092B200E6EBF0E080818062EF
:100D50008083E0E7F0E0808181608083E1EBF0E078
:100D60008081816080838081826080830895CF93B9
:100D7000DF930DC08C859D8590931B0480931A048E
:100D8000CE0102960E942B05CE010E94B90CC091A3
:100D90001A04D0911B04209721F088819981009733
:100DA00049F3DF91CF910895EF92FF920F931F9334
:100DB000CF93DF938AE090E00E94200EC0911A0446
:100DC000D0911B0400E010E08FEDE82E82E0F82EB9
:100DD00020C088819981080F191F00D000D0EDB77D
:100DE000FEB73196ADB7BEB71296FC92EE92119750
:100DF00093838283158304830E940E0E0C84DD8509
:100E0000C02D8DB79EB706960FB6F8949EBF0FBE45
:100E10008DBF2097F1F68AE090E00E94200EDF91CE
:100E2000CF911F910F91FF90EF90089509C0FC01A1
:100E30002485358530931B0420931A040E94B90C35
:100E400080911A0490911B04009789F708958EE011
:100E500090E00E94230C0895EF92FF920F931F934E
:100E6000CF93DF93F82EE92E8B010E942707EC0128
:100E7000DC011296EF2DFE2D8AE001900D9281503B
:100E8000E1F719830883E0911A04F0911B0430976D
:100E900029F4D0931B04C0931A042FC040E050E003
:100EA00020E030E001C0FD0180819181280F391FD1
:100EB0002017310734F4A485B585AF01109799F751
:100EC00001C0DF014115510579F48D919C91119775
:100ED000801B910B11969C938E93BD87AC87D0930A
:100EE0001B04C0931A0424C0109751F4021B130B67
:100EF00019830883FA01D587C4871D861C8618C00C
:100F00008D919C911197B901681B790B9801261B53
:100F1000370B398328838D919C911197821B930BFA
:100F200011969C938E93FA01D587C487BD87AC87B1
:100F3000DF91CF911F910F91FF90EF900895F8945A
:100F40000E94C60478948823D1F3843011F090E095
:100F500008958FEF9FEF0895CF93C82F8A3019F42B
:100F60008DE00E94AC07F89480910405882359F421
:100F7000C093C60081E0809304050AC0789486EF90
:100F80008A95F1F7F8948C2F0E94E3040097B1F34F
:100F9000789481E090E0CF91089588EF92E090936B
:100FA0005205809351058AEE92E09093500580930C
:100FB0004F05109204050E9493041092C50087E02B
:100FC0008093C400E0ECF0E0808182608083E1ECFB
:100FD000F0E080818860808380818064808380816C
:100FE000806180838081806880830895CF93C82F3B
:100FF0008A3019F48DE00E94F60780910405882359
:1010000031F4C093C60081E08093040503C08C2FA7
:101010000E94E304CF9108958091C2049091C3048B
:101020002091090530910A058217930759F001961E
:1010300060E470E00E94C50B855F9A4FFC018081DF
:1010400090E0089580E090E008950E940C080895D3
:10105000809880E880937C000895EAE7F0E0808142
:10106000806880838DED90E00197F1F78081886042
:1010700080838081806480830895A0E2B0E0E3E40F
:10108000F8E00C94EE0BDC01CB018D839E83AF83E3
:10109000B88729833A834B835C83CE010596BE01D2
:1010A000675E7F4F0E94300BCE010196BE016F5EDE
:1010B0007F4F0E94300B998D923078F08989823071
:1010C000C0F0943019F4823041F4CAC0843019F46D
:1010D000923079F4C5C0923051F481E02A8D9A891A
:1010E000291709F480E08A8FCE014996BBC082306F
:1010F00051F481E02A8D9A89291709F480E08A8BBE
:10110000CE014196AFC04D8C5E8C6F8C78A00D895E
:101110001E892F89388DE0E2F0E040E050E0BA010E
:10112000882499245401CC24DD247601C2018170E5
:1011300090700097D1F0C00ED11EE21EF31EDB01AD
:10114000CA01880D991DAA1DBB1D41E050E060E059
:1011500070E0C016D106E206F30618F040E050E059
:10116000BA01480F591F6A1F7B1F880C991CAA1CC3
:10117000BB1C37FF08C081E090E0A0E0B0E0882A07
:10118000992AAA2ABB2A000F111F221F331F769407
:10119000679457944794319749F68B8D9C8D2B8992
:1011A0003C89820F931F02969C878B8781E02A8D52
:1011B0009A89291709F480E08A872B853C8517C016
:1011C000CA0181709070009761F0F694E794D7940B
:1011D000C79480E090E0A0E0B0E8C82AD92AEA2AC3
:1011E000FB2A76956795579547952F5F3F4F77FD7B
:1011F000E7CFC9010BC0440F551F661F771FF7FCCF
:101200004160CC0CDD1CEE1CFF1C01974030A0E0BF
:101210005A07A0E06A07A0E47A0768F38B879C87E7
:10122000DB01CA018F779070A070B0708034910597
:10123000A105B10561F447FD0AC0C114D104E10460
:10124000F10429F0405C5F4F6F4F7F4F40784D872E
:101250005E876F87788B83E08987CE01099602C00D
:1012600086E093E00E94590A462F572F682F792F66
:10127000CB01BA01A096E0E10C940A0CCF92DF9268
:10128000EF92FF92CF93DF93CDB7DEB728970FB6DB
:10129000F894DEBF0FBECDBF6B017C0183E0898374
:1012A000D701C6018827B7FD83959927AA27BB27B1
:1012B000282F8A83C114D104E104F10419F482E0D7
:1012C000898335C08EE190E09C838B83222389F053
:1012D00080E0C81680E0D80680E0E80680E8F806DE
:1012E00059F1F094E094D094C094C11CD11CE11C3D
:1012F000F11CCD82DE82EF82F886C701B6010E9422
:10130000060A01971816190694F4082E04C0CC0C8E
:10131000DD1CEE1CFF1C0A94D2F7CD82DE82EF8228
:10132000F8862EE130E0281B390B3C832B83CE015D
:1013300001960E94590A04C060E070E080E09FECD2
:10134000382F292F862F972FA32FB22FBC01CD0125
:1013500028960FB6F894DEBF0FBECDBFDF91CF91B8
:10136000FF90EF90DF90CF900895ACE0B0E0EBEB12
:10137000F9E00C94FA0BDC01CB0189839A83AB83EF
:10138000BC83CE010196BE016B5F7F4F0E94300B84
:101390008D81823069F1823058F1843039F02F81AB
:1013A000388537FD25C02F31310544F08E818823E3
:1013B00019F100E010E020E030E822C08EE190E07A
:1013C000821B930B09851A852B853C8504C03695B5
:1013D0002795179507958A95D2F78E81882381F0F6
:1013E00030952095109501951F4F2F4F3F4F08C006
:1013F00000E010E0980104C00FEF1FEF2FEF3FE770
:10140000B801C9012C96E4E00C94160CCF92DF923F
:10141000EF92FF920F931F938B019C01003080E0AD
:10142000180781E0280780E0380750F40F3F1105C6
:101430002105310509F088F480E090E0DC0116C058
:101440000030E0E01E07E0E02E07E1E03E0750F448
:1014500080E190E0A0E0B0E009C088E090E0A0E08A
:10146000B0E004C088E190E0A0E0B0E040E250E0ED
:1014700060E070E0481B590B6A0B7B0B6801790137
:1014800004C0F694E794D794C7948A95D2F7D7010D
:10149000C601825F9C4FFC018081481B5109610994
:1014A0007109CA011F910F91FF90EF90DF90CF90CB
:1014B0000895CF92DF92EF92FF920F931F93DC017A
:1014C00014964D915D916D917C9117971196EC91C9
:1014D00011978C91823020F460618FEF90E0A5C06D
:1014E000843009F49DC0823009F494C0411551053F
:1014F0006105710509F491C012968D919C91139725
:101500002FEF823892070CF059C022E83FEF281BDA
:10151000390B2A31310564F56A017B01022E04C0C2
:10152000F694E794D794C7940A94D2F781E090E0B8
:10153000A0E0B0E004C0880F991FAA1FBB1F2A9526
:10154000D2F70197A109B10984239523A623B723D4
:1015500041E050E060E070E00097A105B10519F4AA
:1015600040E050E0BA014C295D296E297F2903C073
:1015700040E050E0BA01DB01CA018F779070A070A3
:10158000B07080349105A105B10539F447FF09C059
:10159000405C5F4F6F4F7F4F04C0415C5F4F6F4FA8
:1015A0007F4F81E090E0403020E0520720E062076A
:1015B00020E4720738F580E090E024C0803891057F
:1015C0007CF58A019B010F77107020703070003419
:1015D00011052105310539F447FF09C0405C5F4F13
:1015E0006F4F7F4F04C0415C5F4F6F4F7F4F77FD60
:1015F00003C081589F4F06C07695679557954795CC
:1016000080589F4F97E076956795579547959A959F
:10161000D1F70BC080E090E005C080E090E005C00D
:101620008FEF90E040E050E0BA01982F979599270E
:101630009795A62FAF77E795EE27E79586953A2FF2
:10164000392B282F2E2B842F952FA32FB22FBC019F
:10165000CD011F910F91FF90EF90DF90CF900895F3
:10166000DC01FB014C9111965C91119712968C91C3
:101670001297682F6F7770E0982F991F9927991FFD
:1016800013962C911397822F880F892B90E0221F9D
:101690002227221F2183009739F541155105610545
:1016A000710511F482E029C082E89FEF9383828361
:1016B00027E0440F551F661F771F2A95D1F783E057
:1016C000808309C0440F551F661F771F8281938155
:1016D000019793838283403080E0580780E0680759
:1016E00080E4780778F320C08F3F910579F44115A5
:1016F00051056105710519F484E08083089564FF44
:1017000003C081E0808310C010820EC08F579040CC
:101710009383828383E0808387E0440F551F661F95
:10172000771F8A95D1F770644483558366837783E6
:101730000895CF93DF93CDB7DEB72A970FB6F8940D
:10174000DEBF0FBECDBF0E94CD070E9422050E94C2
:10175000A2060E9428080F920F9285E692E0EDB74C
:10176000FEB7928381830E940E0E0F900F90F89423
:10177000CE0101960E946B0578940097C1F3E98130
:10178000FA81CE0103961995F2CF97FB092E072611
:101790000AD077FD04D00CD006D000201AF4709542
:1017A00061957F4F0895F6F7909581959F4F089525
:1017B000AA1BBB1B51E107C0AA1FBB1FA617B70777
:1017C00010F0A61BB70B881F991F5A95A9F7809593
:1017D0009095BC01CD0108952F923F924F925F9258
:1017E0006F927F928F929F92AF92BF92CF92DF9231
:1017F000EF92FF920F931F93CF93DF93CDB7DEB796
:10180000CA1BDB0B0FB6F894DEBF0FBECDBF199419
:101810002A88398848885F846E847D848C849B8480
:10182000AA84B984C884DF80EE80FD800C811B818E
:10183000AA81B981CE0FD11D0FB6F894DEBF0FBEBD
:10184000CDBFED010895CF93DF93AC0182309105B8
:1018500010F442E050E0E0914D05F0914E0520E09B
:1018600030E0A0E0B0E024C080819181841795072A
:10187000D0F08417950771F482819381109729F035
:1018800013969C938E9312972CC090934E05809341
:101890004D0527C02115310519F08217930718F45B
:1018A0009C01BD01EF0192818381DF01E92FF82FB7
:1018B0003097D1F621153105F9F0C901841B950B3C
:1018C0008430910580F48A819B816115710521F036
:1018D000FB019383828304C090934E0580934D0552
:1018E000FE01329642C0FE01E80FF91F4193519369
:1018F00002979983888339C080914B0590914C055C
:10190000009741F4809110049091110490934C053C
:1019100080934B0520910E0430910F042115310561
:1019200041F42DB73EB78091120490911304281B07
:10193000390BE0914B05F0914C05E217F30798F451
:101940002E1B3F0B2417350770F0CA01029628178B
:10195000390748F08E0F9F1F90934C0580934B05DD
:101960004193519302C0E0E0F0E0CF01DF91CF91CD
:1019700008950F931F93CF93DF939C01009709F471
:101980008CC0DC01129713961C921E9212976091E4
:101990004D0570914E056115710589F48D919C91ED
:1019A0001197820F931F20914B0530914C052817FA
:1019B000390769F5B0934C05A0934B056EC0FB0148
:1019C00040E050E001C0FC01EA17FB0730F48281DF
:1019D0009381AF010097B9F71FC0E9012297FB83FC
:1019E000EA8308811981C901800F911F8E179F0713
:1019F00059F480819181800F911F02969983888389
:101A0000828193819B838A834115510529F4B09388
:101A10004E05A0934D0541C0FA01B383A283C19145
:101A2000D191EC0FFD1FAE17BF0781F4F901929120
:101A300082918C0F9D1F0296DA0111969C938E93D2
:101A40008281938113969C938E931297E0E0F0E04D
:101A500002C0FB01BC01DB0112968D919C91139792
:101A60000097B9F7CB0102962D913C911197820F07
:101A7000931F20914B0530914C052817390769F4C5
:101A8000309729F410924E0510924D0502C0138232
:101A9000128270934C0560934B05DF91CF911F919B
:101AA0000F910895FC0188279927E894219120320D
:101AB000E9F3293010F02E30C8F32B3241F02D32EB
:101AC00039F4689404C00E94AC0D820F911D2191DD
:101AD00020532A30C0F31EF4909581959F4F0895AE
:101AE0004CE154E00E94850D0895FB01DC018D91CD
:101AF000019080190110D9F3990B0895FB01DC01C5
:101B000001900D920020E1F70895FA01A191B081B2
:101B1000009719F41097E1F0CD01DC01CD010D9093
:101B2000002011F4C00113C0FB012191222319F000
:101B30002015D9F7F3CFFB012191201519F41E923E
:101B4000119606C02223C1F70D900020A1F7D00105
:101B5000FA01A193B08308957AE0979F902D879F13
:101B6000802D910D11240895CF92DF92EF92FF9274
:101B70000F931F93CF93DF938C016A01FA01838146
:101B800080FF1AC016161706BCF47B01E8010EC0D0
:101B9000C6010E94A713FFEF8F3F9F0769F089934B
:101BA0000894E108F1088A30910521F021E0E2165D
:101BB000F10471F7188202C000E010E0C801DF9163
:101BC000CF911F910F91FF90EF90DF90CF900895EC
:101BD0000F931F93CF93DF938C01E0914F05F0910A
:101BE0005005838180FF12C0E80180914F059091DC
:101BF00050050E94A7132FEF8F3F920739F089936A
:101C00008A30910591F72197188202C000E010E018
:101C1000C801DF91CF911F910F910895CF93DF936A
:101C2000CDB7DEB7FE013696619171918091510575
:101C300090915205AF010E94A60EDF91CF910895B9
:101C400060915105709152050E94E71308950F931A
:101C50001F93CF93DF938C01E0915105F0915205D2
:101C6000838181FF1AC0C0E0D0E005C019950097BC
:101C700011F0CFEFDFEFF80181918F0160915105F5
:101C800070915205DB011896ED91FC91199788230C
:101C900069F78AE01995009711F0CFEFDFEFCE01D9
:101CA000DF91CF911F910F9108950F931F93CF93C1
:101CB000DF93CDB7DEB72E970FB6F894DEBF0FBE19
:101CC000CDBF0E891F8986E08C831A8309838FEF2D
:101CD0009FE79E838D83AE01465E5F4FCE010196E6
:101CE000688D798D0E94A60EEF81F885E00FF11FB7
:101CF00010822E960FB6F894DEBF0FBECDBFDF91D7
:101D0000CF911F910F910895CF93DF93CDB7DEB799
:101D10002E970FB6F894DEBF0FBECDBF85E08C8343
:101D20008C899D899A838983AE01485E5F4FCE017D
:101D300001966E897F890E9451122E960FB6F894F3
:101D4000DEBF0FBECDBFDF91CF9108952F923F929E
:101D50004F925F926F927F928F929F92AF92BF92BB
:101D6000CF92DF92EF92FF920F931F93CF93DF9367
:101D7000CDB7DEB72D970FB6F894DEBF0FBECDBF3F
:101D80003C017D876C875A01FC0117821682838192
:101D900081FFC8C12E010894411C511CF30193819D
:101DA000EC85FD8593FD859193FF8191FD87EC87FF
:101DB000882309F4B3C1853241F493FD859193FFE3
:101DC0008191FD87EC87853229F490E0B3010E9470
:101DD000E713E4CFFF24EE2410E01032B0F48B328E
:101DE00069F08C3228F4803251F0833271F40BC0E8
:101DF0008D3239F0803349F411602CC012601460C8
:101E000029C0186027C0106125C017FD2EC0282FDB
:101E100020532A3098F416FF08C08F2D880FF82E13
:101E2000FF0CFF0CF80EF20E15C08E2D880FE82E59
:101E3000EE0CEE0CE80EE20E10620CC08E3221F4B5
:101E400016FD6CC1106406C08C3611F4106802C017
:101E5000883659F4EC85FD8593FD859193FF81913A
:101E6000FD87EC87882309F0B8CF982F95549330DD
:101E700018F09052933038F424E030E0A20EB31EF4
:101E80003FE339830FC0833631F0833781F08335E8
:101E900009F05AC022C0F5018081898322E030E038
:101EA000A20EB31E21E0C22ED12C420114C092E03A
:101EB000292E312C2A0C3B1CF5018080918016FFC5
:101EC00003C06F2D70E002C06FEF7FEFC4010E946E
:101ED0009C136C0151011F7715C082E0282E312C14
:101EE0002A0C3B1CF5018080918016FF03C06F2DEA
:101EF00070E002C06FEF7FEFC4010E9491136C018C
:101F00001068510113FD1CC006C080E290E0B301CF
:101F10000E94E713EA948E2D90E0C816D906A8F324
:101F20000FC0F40117FD859117FF81914F0190E0DB
:101F3000B3010E94E713E110EA940894C108D108A4
:101F4000C114D10471F7E7C0843611F0893651F518
:101F5000F50117FF07C080819181A281B38124E040
:101F600030E008C080819181AA2797FDA095BA2F03
:101F700022E030E0A20EB31E012F0F76B7FF08C09B
:101F8000B095A095909581959F4FAF4FBF4F00683A
:101F9000BC01CD01A2012AE030E00E943014D82E0D
:101FA000D4183FC0853721F41F7E2AE030E020C0DE
:101FB000197F8F36A9F0803720F4883509F0AEC03C
:101FC0000BC0803721F0883709F0A8C001C010612C
:101FD00014FF09C0146007C014FF08C0166006C0D3
:101FE00028E030E005C020E130E002C020E132E02E
:101FF000F50117FF07C0608171818281938144E000
:1020000050E006C06081718180E090E042E050E0E5
:10201000A40EB51EA2010E943014D82ED418012F90
:102020000F7706FF09C00E7FDF1430F404FF06C0EF
:1020300002FD04C00F7E02C01D2D01C01F2D802F88
:1020400090E004FF0CC0FE01ED0DF11D2081203356
:1020500011F4097E09C002FF06C01E5F05C0867824
:102060009070009709F01F5F802E992403FD12C025
:1020700000FF0DC0FD2C1E1550F4FE0CF11A1E2D94
:1020800006C080E290E0B3010E94E7131F5F1E15B7
:10209000C0F304C01E1510F4E11A01C0EE2484FE42
:1020A0000FC080E390E0B3010E94E71382FE1FC0DF
:1020B00081FE03C088E590E010C088E790E00DC085
:1020C000C40186789070009791F081FC02C080E294
:1020D00001C08BE207FD8DE290E0B3010E94E7139F
:1020E00006C080E390E0B3010E94E713FA94DF1486
:1020F000C0F3DA94F201ED0DF11D808190E0B3019F
:102100000E94E713DD20A9F706C080E290E0B3014A
:102110000E94E713EA94EE20C1F740CEF3018681D6
:10212000978102C08FEF9FEF2D960FB6F894DEBF18
:102130000FBECDBFDF91CF911F910F91FF90EF9018
:10214000DF90CF90BF90AF909F908F907F906F90D7
:102150005F904F903F902F90089520FD09C0FC01A3
:1021600023FD05C022FF02C0738362835183408335
:102170000895CF92DF92EF92FF926B017C0144FDB4
:1021800010C046FD10C0D601F701AA0FBB1FEE1FFD
:10219000FF1F1094D1F7CA0EDB1EEE1EFF1E81E05A
:1021A00003C083E001C084E0CC0CDD1CEE1CFF1CEE
:1021B0008150D1F7C20ED11CE11CF11CB601C70140
:1021C000FF90EF90DF90CF9008950F931F93CF93E0
:1021D000DF938C01C8010E94A713EC0197FD08C092
:1021E0000E947E130097B1F7CE01B8010E9413142C
:1021F000CE01DF91CF911F910F910895AF92BF92C1
:10220000CF92DF92EF92FF920F931F93CF93DF93C2
:102210008C01D62F5A01C22F0E94A7138B3219F0BE
:102220008D3249F4C068D15009F461C0C8010E94E0
:10223000A71397FD5CC0CD7F2C2F2073D1F4803382
:10224000C1F4D15009F43EC0C8010E94A71397FD04
:1022500039C0C260883711F0883549F4C064D15064
:1022600089F1C8010E94A71397FF03C02BC0C6FFC6
:10227000C061CC24DD247601282F2053283080F043
:10228000C4FD09C02A3060F0C6FF05C02F7D322F83
:102290003151363020F0B8010E94131410C027507D
:1022A000C701B6014C2F0E94B9106B017C01C260BE
:1022B000D15059F0C8010E94A71397FFDDCFC1FD8F
:1022C00004C015C0CC24DD247601C7FF08C0F094FB
:1022D000E094D094C094C11CD11CE11CF11CC50138
:1022E000B701A6012C2F0E94AD1081E001C080E053
:1022F000DF91CF911F910F91FF90EF90DF90CF90E2
:10230000BF90AF9008954F925F926F927F928F929D
:102310009F92AF92BF92CF92DF92EF92FF920F9374
:102320001F93CF93DF93CDB7DEB7A0970FB6F89486
:10233000DEBF0FBECDBF5C01062F7A016901FE0131
:10234000319680E2DF011D928A95E9F7D501139657
:102350001C91139760E070E020E040E030E04F0116
:1023600081E0682E712CF60113FD559113FF5191F8
:102370006F01552309F47BC05E3519F461157105B1
:1023800049F1832F90E0861797073CF45D3551F1B2
:102390005D3219F4442301F103C0442309F4252FCD
:1023A000852F869586958695F401E80FF11D852F7A
:1023B0008770230102C0440C551C8A95E2F7808186
:1023C00084298083521751F0521710F45F5FE8CFD1
:1023D0005150E6CF31E003C041E001C040E06F5F03
:1023E0007F4FC1CF442319F08E8180628E833323C7
:1023F00051F0FE013196CE018196208120952193E6
:10240000E817F907D1F711E001C010E0C5010E94FB
:10241000A7139C0197FD23C0869586958695E1E0DC
:10242000F0E0EC0FFD1FE80FF11D408150E0C90105
:102430008770907002C0559547958A95E2F740FDE8
:1024400005C0C901B5010E94131409C0E114F104CB
:1024500019F0D7012D937D010150B9F602C0112367
:1024600031F4E114F10429F0F701108202C0CC2408
:10247000DD24C601A0960FB6F894DEBF0FBECDBF17
:10248000DF91CF911F910F91FF90EF90DF90CF9050
:10249000BF90AF909F908F907F906F905F904F9084
:1024A00008955F926F927F928F929F92AF92BF92A8
:1024B000CF92DF92EF92FF920F931F93CF93DF9310
:1024C0000F92CDB7DEB77C015B013A01FC011782A8
:1024D00016829924EFC0812F90E00E947E1300970E
:1024E00021F0C7010E94E510E5C0153241F4F50165
:1024F00003FD359103FF31915F01353261F4C7016E
:102500000E94A71397FDE2C0181709F4D3C0B701C2
:102510000E941314DDC03A3241F403FD359103FFEC
:1025200031915F015524539401C05524882410C073
:10253000F2E05F2A682D70E080E090E040E20E94C7
:10254000B910862EF50103FD359103FF31915F012E
:10255000232F20532A3060F351FE03C0882019F442
:10256000B7C088248A94383619F03C3699F40AC0EA
:10257000F50103FD359103FF31915F01383651F4C8
:10258000F8E05F2A44E0542AF50103FD359103FF8A
:1025900031915F01332309F49BC084EE90E0632FF7
:1025A00070E039830E9486133981009709F490C046
:1025B000852D50FC08C0F3010081118142E050E0FC
:1025C000640E751E02C000E010E03E3651F4F701C3
:1025D0004681578160E070E0C801252D0E94AD1052
:1025E00069C0333691F481FD02C088248394C70109
:1025F0000E94A71397FD6AC00115110519F0F80193
:1026000081938F018A9499F753C0C7013B3551F4E8
:10261000682DA80195010E9483115C01009709F0C3
:1026200047C041C039830E94E510398197FD4EC0F3
:102630003F3661F1303728F4343629F1393649F51F
:102640002AC0333719F0353721F51DC0C7010E9464
:10265000A7136C0197FD11C00E947E13009729F00B
:10266000C601B7010E94131408C00115110519F025
:10267000F801C1928F018A9449F701151105C1F043
:10268000F801108215C0F0E25F2A05C040E1542A2B
:1026900002C050E4552AC701682DA801252D0E94CB
:1026A000FE10882329F4F7018381807379F410C028
:1026B00050FE9394F7010381F50103FD159103FF8B
:1026C00011915F01112309F006CF02C0992019F082
:1026D000892D90E002C08FEF9FEF0F90DF91CF9197
:1026E0001F910F91FF90EF90DF90CF90BF90AF9030
:1026F0009F908F907F906F905F90089591110EC181
:10270000803219F089508550D0F70895FC0105906A
:10271000061621F00020D9F7C00108953197CF01A6
:102720000895FC010590615070400110D8F7809524
:1027300090958E0F9F1F0895FC016150704001908D
:102740000110D8F7809590958E0F9F1F0895CF9315
:10275000DF93EC012B8120FF35C026FF09C02F7BC2
:102760002B838E819F8101969F838E838A8128C0CF
:1027700022FF0FC0E881F9818081992787FD90951C
:10278000009719F420622B831DC03196F983E883EA
:1027900011C0EA85FB85CE01199597FF0BC02B81EF
:1027A0003FEF8F3F930711F480E101C080E2822B5D
:1027B0008B8308C02E813F812F5F3F4F3F832E8345
:1027C00090E002C08FEF9FEFDF91CF9108950F93BC
:1027D0001F93CF93DF938C01EB018B8181FF1BC093
:1027E00082FF0DC02E813F818C819D812817390782
:1027F00064F4E881F9810193F983E88306C0E885F0
:10280000F985802F1995009731F48E819F8101966B
:102810009F838E8302C00FEF1FEFC801DF91CF911E
:102820001F910F910895FB01238120FF13C026FD06
:1028300011C03FEF8F3F930781F08283922F906406
:102840009F7D9383268137812150304037832683B3
:1028500090E008958FEF9FEF08958FEF9FEF089519
:10286000FA01AA27283051F1203181F1E8946F93C1
:102870006E7F6E5F7F4F8F4F9F4FAF4FB1E03ED067
:10288000B4E03CD0670F781F891F9A1FA11D680F05
:10289000791F8A1F911DA11D6A0F711D811D911D38
:1028A000A11D20D009F468943F912AE0269F1124AD
:1028B0003019305D3193DEF6CF010895462F477011
:1028C000405D4193B3E00FD0C9F7F6CF462F4F706C
:1028D000405D4A3318F0495D31FD4052419302D0CA
:1028E000A9F7EACFB4E0A695979587957795679570
:1028F000BA95C9F700976105710508959B01AC0170
:102900000A2E06945795479537952795BA95C9F796
:10291000620F731F841F951FA01D08959927882794
:062920000895F894FFCFBA
:1029260025642069732061207072696D65206E755B
:102936006D626572202121210A00636F756E743DF8
:1029460025640A0025642069732061207072696D10
:1029560065206E756D626572210A00636F756E740F
:10296600203D2025640A003E20003E3E20002564CE
:1029760025632564002564000025640001002D2DD3
:102986003E2563200024200043757272656E742014
:1029960074656D7065726174757265206973202542
:1029A60064206465677265652E0A006C6F676F75D3
:1029B600742C20676F6F64206279652021212100C5
:1029C60020090A0D002420007072696D6500746983
:1029D6006D6572002121212D323232000021212124
:1029E6002D3333330074633130343700556E6B6EDC
:1029F6006F776E20636F6D6D616E642E2E2E002DC7
:102A06002D3E2564282564292000000000010000D1
:102A1600000000009F070000000000020000000008
:102A2600AC070000000000000000000000000001EC
:102A36000202030303030404040404040404050556
:102A4600050505050505050505050505050506062E
:102A56000606060606060606060606060606060610
:102A660006060606060606060606060606060707FE
:102A760007070707070707070707070707070707E0
:102A860007070707070707070707070707070707D0
:102A960007070707070707070707070707070707C0
:102AA60007070707070707070707070707070808AE
:102AB6000808080808080808080808080808080890
:102AC6000808080808080808080808080808080880
:102AD6000808080808080808080808080808080870
:102AE6000808080808080808080808080808080860
:102AF6000808080808080808080808080808080850
:102B0600080808080808080808080808080808083F
:102B1600080808080808080808080808080808082F
:102B2600080808080808080808080808080800002F
:042B36005505200021
:00000001FF
