:100000000C9472000C9494000C9494000C94940042
:100010000C9494000C9494000C9494000C94940010
:100020000C9494000C9494000C9494000C94940000
:100030000C9494000C9494000C9494000C949400F0
:100040000C9494000C9494000C9494000C949400E0
:100050000C9494000C9494000C9494000C949400D0
:100060000C9494000C9494000C9494000C949400C0
:100070000C9494000C9494000C9494000C949400B0
:100080000C9494000C9494000C9494000C949400A0
:100090000C9494000C9494000C9494000C94940090
:1000A0000C9494000C9494000C9494000C94940080
:1000B0000C9494000C9494000C9494000C94940070
:1000C0000C9494000C9494000C9494000C94940060
:1000D0000C9494000C9494000C9494000C94940050
:1000E0000C94940011241FBECFEFD1E2DEBFCDBF30
:1000F00000E00CBF12E0A0E0B2E0ECE3F2E000E0D0
:100100000BBF02C007900D92A630B107D9F71BBEF6
:1001100012E0A6E0B2E001C01D92A730B107E1F7FE
:100120000E94FB000C941C010C9400008FEF809344
:100130000B0180930A0180930602089510920B012F
:100140001092060208958FEF80930B0180930602B0
:10015000089521E030E002C0220F331F8A95E2F7B4
:1001600020958091060228232093060220930B01FC
:10017000089521E030E002C0220F331F8A95E2F794
:1001800080910602822B8093060280930B010895D2
:1001900080958093060280930B0108951092C5000C
:1001A00087E08093C400E0ECF0E08081826080838F
:1001B000E1ECF0E08081886080830895CF93C82FC0
:1001C0008A3019F48DE00E94DE0087EA91E60197FB
:1001D000F1F700C00000C093C600CF910895CF93FF
:1001E000DF93EC0102C00E94DE0089918823D9F7D9
:1001F000DF91CF9108950E94CE00CAE0D0E00FC0F9
:10020000812F0E94DE001F5F1B35D1F78AE00E941C
:10021000DE0080E092E00E94EF00219711F011E4EF
:10022000EFCF0E949E008FE493EC0197F1F700C09E
:0C02300000000E94A300F5CFF894FFCF5F
:06023C00414243440A00A8
:00000001FF
