:100000000C9472000C9494000C9494000C94940042
:100010000C9494000C9494000C9494000C94940010
:100020000C9494000C9494000C9494000C94940000
:100030000C9494000C9494000C9494000C949400F0
:100040000C9494000C9494000C9494000C949400E0
:100050000C9494000C9494000C9494000C949400D0
:100060000C9494000C9494000C9494000C94B9009B
:100070000C9494000C9494000C9494000C949400B0
:100080000C9494000C9494000C9494000C949400A0
:100090000C9494000C9494000C9494000C94940090
:1000A0000C9494000C9494000C9494000C94940080
:1000B0000C9494000C9494000C9494000C94940070
:1000C0000C9494000C9494000C9494000C94940060
:1000D0000C9494000C9494000C9494000C94940050
:1000E0000C94940011241FBECFEFD1E2DEBFCDBF30
:1000F00000E00CBF12E0A0E0B2E0E0E6F2E000E0D9
:100100000BBF02C007900D92A433B107D9F71BBEF5
:1001100012E0A4E3B2E001C01D92A837B107E1F7F5
:100120000E94EE000C942E010C9400001092C50069
:1001300087E08093C400E0ECF0E0808182608083FF
:10014000E1ECF0E08081886080838081806480833E
:100150000895BC0188E392E00E94270120913802B3
:1001600081E090E090933502809334022093C600A2
:1001700008951F920F920FB60F920BB60F92112493
:100180002F938F939F93EF93FF93809134029091DD
:100190003502FC01E85CFD4F2081222339F481E027
:1001A00090E090933702809336020CC02A3019F405
:1001B0008DE0808305C001969093350280933402D0
:1001C0002093C600FF91EF919F918F912F910F90F7
:1001D0000BBE0F900FBE0F901F9018950E949600B7
:1001E00078941092370210923602CAE0D0E080E094
:1001F00092E00E94A9008091360290913702009708
:1002000029F110923702109236028DE092E00E949E
:10021000A90080913602909137020097B1F01092B8
:100220003702109236028BE192E00E94A900809181
:10023000360290913702009739F02197C1F68AE291
:1002400092E00E94A900FFCFFFCFFFCFFFCFFB01BD
:10025000DC0101900D920020E1F70895F894FFCFA2
:1002600049206C6F766520796F752E0A00596F757D
:10027000206C6F7665206D652E0A004865206C6FD6
:10028000766573206865722E0A00456E6420212110
:04029000210A00003F
:00000001FF
